:100000000C947200189500001895000018950000D7
:10001000189500001895000018950000189500002C
:10002000189500001895000018950000189500001C
:10003000189500001895000018950000189500000C
:1000400018950000189500001895000018950000FC
:100050000C943403189500001895000018950000C2
:1000600018950000189500001895000018950000DC
:1000700018950000189500001895000018950000CC
:1000800018950000189500001895000018950000BC
:1000900018950000189500001895000018950000AC
:1000A000189500001895000018950000189500009C
:1000B000189500001895000018950000189500008C
:1000C000189500001895000018950000189500007C
:1000D000189500001895000018950000189500006C
:1000E000189500008FEF8DBFC0E8E8EF4E2E81E23B
:1000F0008EBFD1E2F0E25F2EA89584B7082E882744
:1001000084BF88E199278093600090936000EEEFB0
:10011000FFE1A0E0B2E088278D933197E9F70E94D4
:100120006217662480E08093800081E080938100E4
:10013000709101017860709301017091010170610B
:100140007093010181EA8093A00082E08093A10076
:10015000279A9D9A81E085BD81EA84BD8FEF84B99D
:100160008FEF809301018FEF83BB8FEF8AB98FEF01
:100170008DB98FEF80BB8FEF87B98FEF81B98FEF8C
:1001800080930A018FEF80930701E2ECF7E00E9471
:1001900069190E944A1770910002706470930002FE
:1001A0000E949B0CEEEBFAE00E9469190E944A172C
:1001B0000E94420F0E94F507789470916F00716061
:1001C00070936F008BE990E090938500809384009A
:1001D00081E08093810080E08093160281E090E0CE
:1001E000AEE1B2E08D939C93AEE1B2E00D911C9133
:1001F000053050E0150718F011F00C9418010E941A
:10020000930FA7E2B2E08D919C91D2018D939C93C4
:1002100082E00E94CF180E94660C229682E00E9423
:10022000CB18AEE1B2E00E945B1710F40C94F4001E
:100230008CE291E00E94B91880E090E0D2018D93A9
:100240009C9382E00E94CF180E94660C229682E066
:100250000E94CB18A6E1B2E08C918F5F8C9381E075
:1002600090E0AEE1B2E08D939C93AEE1B2E00D91EF
:100270001C91043650E0150718F011F00C94B101F0
:100280000E94930FA2E0B2E08D919C918A939A9381
:100290000E946917A3E2B2E00D931C93A4E0B2E0C0
:1002A0008D919C918A939A930E946917A5E2B2E07E
:1002B0000D931C93A2E0B2E08D919C918A939A9346
:1002C0000E946917A9E2B2E00D931C93A4E0B2E08A
:1002D0008D919C918A939A930E946917ABE2B2E048
:1002E0000D931C93A3E2B2E08D919C91D2018D936A
:1002F0009C9382E00E94CF18A5E2B2E08D919C9180
:10030000D2018D939C9382E00E94CF18A9E2B2E0C3
:100310008D919C91D2018D939C9382E00E94CF1885
:10032000ABE2B2E08D919C91D2018D939C9382E0DF
:100330000E94CF18A7E2B2E08D919C91D2018D93DB
:100340009C9382E00E94CF180E94610E2A968AE058
:100350000E94CB18AEE1B2E00E945B1710F40C943F
:1003600035018CE291E00E94B91880E090E0D20162
:100370008D939C9382E00E94CF180E94660C229677
:1003800082E00E94CB18A6E1B2E08C918F5F8C9343
:1003900081E090E0AEE1B2E08D939C93AEE1B2E0FB
:1003A0000D911C910A3050E0150718F011F00C94D3
:1003B0002E020E94930FA2E0B2E08D919C918A934D
:1003C0009A930E946917A5E2B2E00D931C93A4E0F2
:1003D000B2E08D919C918A939A930E946917ABE247
:1003E000B2E00D931C938AE090E0ADE2B2E08D9311
:1003F0009C93A5E2B2E08D919C91D2018D939C9348
:1004000082E00E94CF18ABE2B2E08D919C91D201C4
:100410008D939C9382E00E94CF18ADE2B2E08D9163
:100420009C91D2018D939C9382E00E94CF18A7E209
:10043000B2E08D919C91D2018D939C9382E00E94B9
:10044000CF180E94A40C289688E00E94CB18AEE139
:10045000B2E00E945B1710F40C94CE018CE291E0A4
:100460000E94B918A6E1B2E08C918F5F8C930E9434
:10047000DD170E94C217EEE1F3E30E9469190E94A2
:10048000BB178FEB13E00E94D117E4E2F3E30E9465
:1004900069190E94BB1782E08093A1008AE090E076
:1004A0009093AB008093AA00A6E1B2E08C918F5F9D
:1004B0008C9380E183B980E283B980E483B980E8DA
:1004C0008093000181E0D2018C9381E00E94CF18DB
:1004D0000E94CE0F229681E00E94CB18E1E0F0E06E
:1004E0000E94D41782E0D2018C9381E00E94CF1841
:1004F0000E94CE0F229681E00E94CB18E1E0F0E04E
:100500000E94D41780E0D2018C9381E00E94CF1822
:100510000E94CE0F229681E00E94CB18A6E1B2E0A5
:100520008C918F5F8C9388E290E09093AB008093E6
:10053000AA00E1E0F0E00E94D41780E590E09093FB
:10054000AB008093AA0080E183B980E283B980E4A4
:1005500083B980E880930001A6E1B2E08C918F5FBF
:100560008C9381E0D2018C9381E00E94CF188AE0C5
:10057000D2018C9381E00E94CF180E94EA0F24964A
:1005800082E00E94CB188CE291E00E94B91882E0D0
:10059000D2018C9381E00E94CF188AE0D2018C9323
:1005A00081E00E94CF180E94EA0F249682E00E9408
:1005B000CB18A6E1B2E08C918F5F8C930E94B110B2
:1005C0000E94DA1084E1D2018C9381E00E94CF185E
:1005D0008AE0D2018C9381E00E94CF188AE0D20198
:1005E0008C9381E00E94CF180E946711269683E0C9
:1005F0000E94CB1880E090E0D2018D939C9382E022
:100600000E94CF180E94660C229682E00E94CB18AE
:1006100081E085BD8AE090E0ABE1B2E08D939C93F0
:10062000ABE1B2E00D911C91083C50E015071CF0C5
:1006300011F00C943003ABE1B2E08C9188BD84E6FC
:1006400090E00E94B918ABE1B2E00D911C910E5CF4
:100650001F4FABE1B2E00D931C9313F00C94100309
:1006600070E078BD0C94EB000F921F922F923F9296
:100670004F925F927F92AF92BF920F931F932F93EF
:100680003F934F935F936F937F938F939F93AF931A
:10069000BF93CF93DF93EF93FF938FB78F938BB776
:1006A0008F9388278BBF80918100887F8093810002
:1006B0008FE496EF909385008093840081E080938F
:1006C0008100A7E1B2E08C918F5F8C9300911702BB
:1006D000063018F011F00C946F030C94720381E053
:1006E0008093170280911602D2018C9381E00E94C0
:1006F000CF1880911702D2018C9381E00E94CF180D
:100700000E944E10249682E00E94CB18ADE1B2E028
:100710008C918F5F8C9300911D02083018F011F0BE
:100720000C9494030C94A10380E080931D025D9AC5
:10073000EF93FF93E5E1F0E00E94A318FF91EF91A2
:100740005D98EEEAF7E00E946919ADE1B2E08C91A4
:100750009927A8E2B0E00E94581980E189B9EF9387
:10076000FF93E5E1F0E00E94A318FF91EF9180E193
:1007700089B98F918BBF8F918FBFFF91EF91DF91DF
:10078000CF91BF91AF919F918F917F916F915F9129
:100790004F913F912F911F910F91BF90AF907F90FC
:1007A0005F904F903F902F901F900F901895C6C666
:1007B000C6FEFE6C38100000013012064C24200FDB
:1007C0000004010808000000000000000000183CC0
:1007D0003C18180018006666240000000000363639
:1007E0007F367F363600187C063C603E180000637A
:1007F00033180C6663001C361C6E3B336E001818F1
:100800000C000000000030180C0C0C1830000C1804
:10081000303030180C0000663CFF3C6600000018C9
:10082000187E18180000000000000018180C0000C6
:10083000007E00000000000000000018180060307A
:10084000180C060301001C36636B63361C00181C71
:10085000181818187E003E6360380C667F003E63EF
:10086000603C60633E00383C36337F3078007F0365
:10087000033F60633E001C06033F63633E007F63EB
:1008800030180C0C0C003E63633E63633E003E6315
:10089000637E60301E000018180000181800001851
:1008A00018000018180C6030180C18306000000098
:1008B0007E00007E0000060C1830180C06003E6317
:1008C0003018180018003E637B7B7B031E001C362B
:1008D000637F636363003F66663E66663F003C6617
:1008E000030303663C001F36666666361F007F46BC
:1008F000161E16467F007F46161E16060F003C6623
:10090000030373665C006363637F636363003C1887
:10091000181818183C007830303033331E006766E2
:10092000361E366667000F06060646667F0063774A
:100930007F7F6B63630063676F7B736363003E63FA
:10094000636363633E003F66663E06060F003E63D8
:10095000636363733E703F66663E366667003C665F
:100960000C1830663C007E7E5A1818183C006363F1
:10097000636363633E006363636363361C006363A6
:10098000636B6B7F36006363361C36636300666699
:10099000663C18183C007F6331184C667F003C0CA5
:1009A0000C0C0C0C3C0003060C18306040003C3072
:1009B000303030303C00081C36630000000000007E
:1009C0000000000000FF0C183000000000000000D4
:1009D0001E303E336E0007063E6666663B00000032
:1009E0003E6303633E0038303E3333336E00000015
:1009F0003E637F033E003C66061F06060F000000B4
:100A00006E33333E301F0706366E66666700180089
:100A10001C1818183C00600060606066663C0706A1
:100A200066361E3667001C18181818183C0000009F
:100A3000377F6B6B6B0000003B66666666000000EC
:100A40003E6363633E0000003B66663E060F0000A7
:100A50006E33333E307800003B6E06060F00000018
:100A60007E033E603F000C0C3F0C0C6C3800000015
:100A7000333333336E000000636363361C000000C1
:100A8000636B6B7F3600000063361C36630000002A
:100A90006363637E603F00007E32184C7E007018F6
:100AA000180E1818700018181818181818000E18B2
:100AB000187018180E006E3B0000000000000D10AA
:100AC0005F202122232425262728292A2B2C2D2E7E
:100AD0002F303132333435363738393A3B3C3D3EAE
:100AE0003F404142434445464748494A4B4C4D4E9E
:100AF0004F505152535455565758595A5B5C5D5E8E
:100B00005F606162636465666768696A6B6C6D6E7D
:100B10006F707172737475767778797A7B7C7D7E6D
:100B2000050000000000000000000002707E404050
:100B30000378007800000006090B79090F4900804E
:100B40000040000005784CFF46234040E0C0800B89
:100B5000187C447C030408274407010000408000FF
:100B60000000C040C0800A0103047C4F53210C08E0
:100B70000080C040404080C0404080026060000073
:100B800004031F204000E010080440201C07081048
:100B900060800528387C2828000000000007040435
:100BA000043F040404000000800000000200005024
:100BB00020040101010100000000010040040006C2
:100BC0001840C0000000060E3F4040601F008040FB
:100BD00040C00003207F0040C04006004041427CEE
:100BE000104040C04040C0050060444C3740404089
:100BF000408006010519317F0100000000C000059A
:100C00001050584F02404040800006061F3C684C80
:100C10004700804040C080054040435C6000408009
:100C2000000005394C467B31804040C08006183EAC
:100C30004242633E004040800000020808404002FB
:100C40000808506007040A0A09111020000000007B
:100C5000008080070A0A0A0A0A0A0A000000000047
:100C600000000720101111090A0480800000000014
:100C7000000470404678004040000B0C10234E5892
:100C8000505B4E301B006010D0484888C848902008
:100C900040090000071A723E07010040C0400000F2
:100CA0000040C04007407F4444446E3B40C0404049
:100CB00040C080071F3140404020710080404040CC
:100CC000C0800840407F404040313F4040C04040ED
:100CD0004080800840407F44444E60004040C04017
:100CE000404040800740407F44444E604040C04008
:100CF000000000081F316040402477040080C0409D
:100D00004040C00008407F440404447F4040C0404D
:100D1000000040C04003407F4040C04005004040CC
:100D20007F40C0C04080000A40407F4C0E5361406D
:100D300040004040C0400000C0C040400840407FEC
:100D400040000000004040C040404040C00C407F98
:100D5000701C0701010C307F404040C0400000C0C3
:100D6000800040C0404009407F70180C07417F4020
:100D700040C04000000080C00009043F20404040C7
:100D8000603F1F008080404040C080000740407F9F
:100D900044447C384040C04000000009063F2040E9
:100DA0004040603F1F0080C0406060F090100940EC
:100DB000407F4446793800004040C0400080C04039
:100DC0004006394C44267301C0404040C0000760D3
:100DD00040407F404060004040C04000000940402B
:100DE0007F400000407F40000080C04040C0800045
:100DF000094060784F030106704000000000C08089
:100E00000000000C40707C0741667C47014678403A
:100E100000000080C0000000C000000009404061E8
:100E20005B0C0E53604040C0C0000040C0C0400991
:100E30004060705C070450604000000040C04040CB
:100E4000000008007043465C70604140C040404074
:100E500040C000037F4040F8080803600C01000018
:100E6000800340407F0808F8060418604030040002
:100E70000000000000070000000000000008080853
:100E8000080808080240200000050C09090F00C0EE
:100E90004040C04006407F0C080C0700C04040C0E6
:100EA00080040708080C8040404006070C08487F73
:100EB0000080C04040C04004070A0A0E8040404005
:100EC00005083F48486040C040000006000E090980
:100ED0000F0810F84848487007407F0408080F00C2
:100EE00040C0400040C04003084F0040C0400300E5
:100EF000084F0808F007407F020308080040C04080
:100F000000C0404003407F0040C0400B080F040871
:100F1000080F0408080F0040C0400040C0400040D7
:100F2000C04007080F0408080F0040C0400040C040
:100F300040050708080C0780C040408006080F0CD9
:100F4000080C0708F84840C08006070C08080F0086
:100F500080C04048F80804080F0C0840C040000456
:100F60000E0B0D00C040408004083F080000C04048
:100F70004007080F0000080F0000C0404040C0407C
:100F800006080E0B00090C000080C0000009080EC6
:100F90000B080E0B000B0C000080800000C000004E
:100FA00006080C0F030D0840C00000C04006080EE4
:100FB0000B00090C080898E00000060008090E0C58
:100FC0000840C0404040C003023D4000F008017F9F
:100FD000F80440683D0208D8F0000701020203014E
:100FE00001030000000000000000009108010C63F4
:100FF00000930801009109010C630093090100911D
:101000000801026000930801009109010260009349
:10101000090182E08093B100249A81E88093B000B6
:10102000009109010064009309010FEF03B90093D7
:101030000C018FEE90E0A2E0B2E08D939C938FE3E1
:1010400091E0A4E0B2E08D939C93009108010D7FA4
:10105000009308018AE090E00E94B918009108010D
:101060000C630093080100910801026000930801DD
:1010700084E190E00E94B9181FEC12B900910801B8
:10108000077C009308010C630093080110E012B97B
:1010900000910801077D009308010C63009308018B
:1010A0001BE812B900910801077D009308010C6349
:1010B0000093080110E312B900910801077D009325
:1010C00008010C63009308011DEE12B9009108019C
:1010D000077C009308010C630093080117E612B91E
:1010E00000910801077D009308010C63009308013B
:1010F00013E012B900910801077D009308010C6309
:101100000093080112E112B900910801077D0093D4
:1011100008010C630093080111E812B9009108015D
:10112000077D009308010C630093080118EE12B9C3
:1011300000910801077C009308010C6300930801EB
:1011400015E812B900910801077D009308010C63AE
:101150000093080110E112B900910801077D009386
:1011600008010C63009308011AE712B90091080105
:10117000077D009308010C63009308011BEC12B972
:1011800000910801077C009308010C63009308019B
:1011900019E312B900910801077D009308010C635F
:1011A000009308011CE212B900910801077D009329
:1011B00008010C630093080110E012B900910801C6
:1011C000077D009308010C630093080114E312B932
:1011D00000910801077D009308010C63009308014A
:1011E00012E012B900910801077D009308010C6319
:1011F0000093080117EF12B900910801077C0093D2
:1012000008010C630093080110E212B90091080173
:10121000077D009308010C63009308011AEE12B9D0
:1012200000910801077C009308010C6300930801FA
:1012300010E012B900910801077D009308010C63CA
:101240000093080110E012B900910801077D009396
:1012500008010C630093080110EC12B90091080119
:10126000077C009308010C63009308011BE112B98D
:1012700000910801077D009308010C6300930801A9
:1012800011EC12B900910801077C009308010C636E
:101290000093080110E112B900910801077D009345
:1012A00008010C630093080115EC12B900910801C4
:1012B000077C009308010C63009308011FE312B937
:1012C00000910801077D009308010C630093080159
:1012D0001CE312B900910801077D009308010C631B
:1012E0000093080117EC12B900910801077C0093E4
:1012F00008010C630093080117EB12B90091080173
:10130000077D009308010C630093080116E312B9EE
:1013100000910801077C009308010C630093080109
:1013200018E012B900910801077D009308010C63D1
:10133000009308011AE312B900910801077C009399
:1013400008010C630093080115E512B9009108012A
:10135000077D009308010C630093080111EB12B99B
:1013600000910801077C009308010C6300930801B9
:1013700010E012B900910801077D009308010C6389
:10138000009308011BE112B900910801077D009349
:1013900008010C630093080116EB12B900910801D3
:1013A000077C009308010C63009308011AE012B94E
:1013B00000910801077D009308010C630093080168
:1013C00012EA12B900910801077D009308010C632D
:1013D0000093080112EF12B900910801077C0093F5
:1013E00008010C630093080110E012B90091080194
:1013F000077D009308010C630093080116E212B9FF
:1014000000910801077C009308010C630093080118
:1014100011E012B900910801077D009308010C63E7
:101420000093080110EE12B900910801077C0093A7
:1014300008010C63009308011FE012B90091080134
:10144000077D009308010C63009308011AE212B9AA
:1014500000910801077D009308010C6300930801C7
:1014600018E212B900910801077D009308010C638E
:101470000093080118E012B900910801077D00935C
:1014800008010C63009308011EE012B900910801E5
:10149000077D009308010C630093080118E012B95E
:1014A00000910801077D009308010C630093080177
:1014B00014E512B900910801077D009308010C633F
:1014C0000093080119EA12B900910801077D009301
:1014D00008010C630093080113E412B9009108019C
:1014E000077D009308010C63009308011AE012B90C
:1014F00000910801077D009308010C630093080127
:101500001FE012B900910801077D009308010C63E8
:101510000093080110E012B900910801077D0093C3
:1015200008010C630093080110E012B90091080152
:10153000077D009308010C630093080110E012B9C5
:1015400000910801077D009308010C6300930801D6
:1015500010E012B900910801077D009308010C63A7
:101560000093080111EE12B900910801077C009365
:1015700008010C630093080110E012B90091080102
:10158000077D009308010C630093080115E112B96F
:1015900000910801077D009308010C630093080186
:1015A00017E112B900910801077D009308010C634F
:1015B0000093080117E012B900910801077D00931C
:1015C00008010C630093080111E112B900910801B0
:1015D000077D009308010C630093080116E012B91F
:1015E00000910801077D009308010C630093080136
:1015F0001BE212B900910801077D009308010C63FA
:101600000093080116E512B900910801077D0093C7
:1016100008010C63009308011CE312B90091080152
:10162000077D009308010C630093080115E012B9CF
:1016300000910801077D009308010C6300930801E5
:1016400010E112B900910801077D009308010C63B5
:10165000009308011FE012B900910801077D009373
:1016600008010C63009308011FE312B900910801FF
:10167000077D009308010C63009308011FE312B972
:1016800000910801077D009308010C630093080195
:101690001FE012B900910801077D009308010C6357
:1016A0000093080111E112B900910801077C009331
:1016B00008010C630093080185E090E00E94B918CE
:1016C00019E212B900910801077C009308010C632C
:1016D000009308018AE090E00E94B91880E090E051
:1016E000D2018D939C9382E00E94CF180E94660CD9
:1016F000229682E00E94CB1880E0D2018C9381E098
:101700000E94CF188FEFD2018C9381E00E94CF18F6
:1017100080E991E0D2018D939C9382E00E94CF18E2
:101720000E94970B269684E00E94CB18089584E0CF
:101730000E94CF1881E00E94CF18AC81BD810D912D
:101740001C912227332748EE53E060E070E00E94AE
:10175000DF18AA81BB810D931D932D933D93AE811C
:10176000BF814C91A885B9850C91041710F00C9499
:101770000E0CAE81BF810C91A885B9854C91041BDC
:10178000A881B9810C93AA81BB810D911D912D91E6
:101790003C91A881B9814C915527662777270E94F3
:1017A0005618AA81BB814D935D936D937D93AA8159
:1017B000BB818D919C91AC81BD818D939C93A885BB
:1017C000B9858C91A881B9818C93AE81BF814C91F0
:1017D000A881B9810C91041718F011F00C940C0C2D
:1017E000A881B9818C91D2018C9381E00E94CF189D
:1017F0000E942A14229681E00E94CB18AC81BD8100
:10180000ED91FC910E94A618A881B9818C918F5FFF
:101810008C9310F40C94E50B0C94600CA885B9859E
:101820000C91AE81BF814C91041BA881B9810C93AE
:10183000AA81BB810D911D912D913C91A881B98107
:101840004C915527662777270E945618AA81BB819D
:101850004D935D936D937D93AA81BB818D919C91F6
:10186000AC81BD818D939C93A885B9858C91A8810D
:10187000B9818C93A881B9814C91AE81BF810C91C3
:10188000041718F011F00C94600CA881B9818C91A8
:10189000D2018C9381E00E94CF180E942A142296D4
:1018A00081E00E94CB18AC81BD81ED91FC910E943A
:1018B000A618A881B9810E94571710F00C943A0C11
:1018C00085E0481A80E0580A2496089580E090E068
:1018D000D2018D939C9382E00E94CF1880E090E02B
:1018E000D2018D939C9382E00E94CF18A2E0B2E0D7
:1018F0008D919C91D2018D939C9382E00E94CF1890
:10190000A4E0B2E08D919C91D2018D939C9382E0F2
:101910000E94CF18A885B9858D919C91D2018D9395
:101920009C9382E00E94CF180E94A2142A968AE01B
:101930000E94CB1808958092090290920A02809129
:10194000010280930B02089582E00E94CF1882E08A
:101950000E94CF1882E00E94CF1882E00E94CF1828
:1019600084E00E94CF1884E00E94CF1884E00E9497
:10197000CF1884E00E94CF1882E00E94CF1882E046
:101980000E94CF1882E00E94CF18A88DB98D8D914A
:101990009C91AC81BD818D939C93AC81BD810D9157
:1019A0001D9117FB1EF42FEF3FEF02C022273327B4
:1019B000AC81BD814D915D9157FB1EF46FEF7FEFC0
:1019C00002C0662777270E94DF18AC85BD850D937E
:1019D0001D932D933D93AC81BD810D911C914FEFD3
:1019E0005FEF0E94D518A889B9890D931C93AC812B
:1019F000BD810D911C914FEF5FEF0E94D518AE8510
:101A0000BF850D931C93A889B9898D919C91AC8950
:101A1000BD898D939C93AC81BD814D915C91AC89C6
:101A2000BD890D911C91041715071CF011F00C9441
:101A30005B0EAC89BD890D911D9117FB1EF42FEF34
:101A40003FEF02C022273327AC89BD894D915D91BC
:101A500057FB1EF46FEF7FEF02C0662777270E94C7
:101A6000DF18AA85BB850D931D932D933D93AE85FD
:101A7000BF858D919C91AA89BB898D939C93AC81E4
:101A8000BD814D915C91AA89BB890D911C91041770
:101A900015071CF011F00C94550EAA89BB890D9105
:101AA0001D9117FB1EF42FEF3FEF02C022273327B3
:101AB000AA89BB894D915D9157FB1EF46FEF7FEFB3
:101AC00002C0662777270E94DF18A885B9850D9385
:101AD0001D932D933D93AC8DBD8D8D919C91AE81C9
:101AE000BF818D939D9388278D938C93AE81BF8109
:101AF0000D911D912D913C91AA89BB894D915D91CC
:101B000057FB1EF46FEF7FEF02C0662777270E9416
:101B10007519AE81BF810D931D932D933D93AE81B9
:101B2000BF818D919C91AA81BB818D939C93AA8D3D
:101B3000BB8D8D919C91AE81BF818D939D938827A4
:101B40008D938C93AE81BF810D911D912D913C9110
:101B5000AC89BD894D915D9157FB1EF46FEF7FEF0E
:101B600002C0662777270E947519AE81BF810D9349
:101B70001D932D933D93AE81BF818D919C91A88142
:101B8000B9818D939C93A885B9850D911D912D9157
:101B90003C91AA85BB854D915D916D917C910E9490
:101BA0007519AE81BF810D931D932D933D93AC8527
:101BB000BD854D915D916D917C91AE81BF810D91FF
:101BC0001D912D913C910E947A1981E014F009F049
:101BD00080E08F93AA81BB814D915C9100E010E081
:101BE0000417150781E010F009F080E09F91892328
:101BF0008F93A2E0B2E04D915C91AA81BB810D91DF
:101C00001C910417150781E008F080E09F9189235B
:101C10008F93A881B9814D915C9100E010E0041789
:101C2000150781E010F009F080E09F9189238F93E0
:101C3000A4E0B2E04D915C91A881B9810D911C9115
:101C40000417150781E008F080E09F91892388231D
:101C500011F40C944F0EAA81BB818D919C91D201FD
:101C60008D939C9382E00E94CF18AA81BB818D91B5
:101C70009C91D2018D939C9382E00E94CF18AA8DF3
:101C8000BB8D8D919C91D2018D939C9382E00E949B
:101C9000CF180E949015269686E00E94CB18AA893C
:101CA000BB890E945B170C943F0DAC89BD890E94D3
:101CB0005B170C940B0D8EE1481A80E0580A66966B
:101CC0000895A885B9858D919C91D2018D939C939F
:101CD00082E00E94CF18A885B9858D919C91D20190
:101CE0008D939C9382E00E94CF18A885B9858D9131
:101CF0009C91D2018D939C9382E00E94CF18AC8579
:101D0000BD858D919C91D2018D939C9382E00E9420
:101D1000CF18A885B9858D919C91D2018D939C9304
:101D200082E00E94CF180E94A2142A968AE00E94A4
:101D3000CB18A885B9858D919C91D2018D939C93E8
:101D400082E00E94CF18A885B9858D919C91D2011F
:101D50008D939C9382E00E94CF18AC85BD858D91B8
:101D60009C91D2018D939C9382E00E94CF18A8850C
:101D7000B9858D919C91D2018D939C9382E00E94B4
:101D8000CF18A885B9858D919C91D2018D939C9394
:101D900082E00E94CF180E94A2142A968AE00E9434
:101DA000CB18A885B9858D919C91D2018D939C9378
:101DB00082E00E94CF18AC81BD818D919C91D201AF
:101DC0008D939C9382E00E94CF18A885B9858D9150
:101DD0009C91D2018D939C9382E00E94CF18A8859C
:101DE000B9858D919C91D2018D939C9382E00E9444
:101DF000CF18A885B9858D919C91D2018D939C9324
:101E000082E00E94CF180E94A2142A968AE00E94C3
:101E1000CB18AC81BD818D919C91D2018D939C9307
:101E200082E00E94CF18A885B9858D919C91D2013E
:101E30008D939C9382E00E94CF18A885B9858D91DF
:101E40009C91D2018D939C9382E00E94CF18A8852B
:101E5000B9858D919C91D2018D939C9382E00E94D3
:101E6000CF18A885B9858D919C91D2018D939C93B3
:101E700082E00E94CF180E94A2142A968AE00E9453
:101E8000CB18089580921102909212028091010263
:101E9000809313020E945017AEE0B2E00E943C19FA
:101EA0000C920E944A170E945017AFE0B2E00E94C5
:101EB0003C190C920E944A17AFE0B2E08C9185FB6E
:101EC000A0E0B2E08C9184F98C93AFE0B2E08C9109
:101ED0008F718C930E945017A0E1B2E00E943C19D0
:101EE0000C920E944A17A1E1B2E00D911C910D5F86
:101EF0001F4FA1E1B2E00D931C9300910E0247E049
:101F0000040FA4E1B2E00C93A4E1B2E00C9148E02C
:101F10000E947F190C930091140248E0049FA5E1F0
:101F2000B2E00C9208958FEF90E08A939A930E940A
:101F30006917A0E2B2E00C938FEF90E08A939A9336
:101F40000E946917A1E2B2E00C938FEF90E08A93B0
:101F50009A930E946917A2E2B2E00C93A7E2B2E062
:101F6000BA93AA9380912002D2018C9381E00E94BF
:101F7000CF1880912102D2018C9381E00E94CF186A
:101F800080912202D2018C9381E00E94CF180E949E
:101F90009613289683E00E94CB180895A881B981F2
:101FA0000C91013011F00C94DA0FA398A49A2F9A97
:101FB0000C94E90FA881B9810C91023011F00C94B6
:101FC000E60FA39AA4982F9A0C94E90FA398A498CB
:101FD0002F98089581E090E0ABE1B2E08D939C935F
:101FE000A881B9814D915527ABE1B2E00D911C91CB
:101FF000041715071CF011F00C944D10AA81BB8139
:102000000C91013011F00C94081081E080931802BB
:10201000AA81BB810C91023011F00C94121088E05F
:102020008093180281E090E0A9E1B2E08D939C9347
:10203000A9E1B2E00D911C91023050E015071CF0AF
:1020400011F00C9447100E941616AA81BB810C91C6
:10205000013011F00C94311092E0A8E1B2E00E943E
:102060000219AA81BB810C91023011F00C943D1031
:1020700092E0A8E1B2E00E940C1984E690E00E9490
:10208000B918A9E1B2E00E945B170C941810ABE1FB
:10209000B2E00E945B170C94F00F0895AA81BB81F7
:1020A0000C91093018F011F00C9458100C945C103D
:1020B00089E0AA81BB818C93729880E091E0A0E5D1
:1020C000B2E08D939C93A881B9819C91A0E5B2E088
:1020D0000E941E19E8EBF7E00E946919AA81BB81F2
:1020E0008C919927A2E5B2E00E945219A2E5B2E0D4
:1020F0000D911C91A0E5B2E04D915C91042B152B44
:10210000A2E5B2E00D931C9390E1699A689A709AE7
:10211000A2E5B2E012968E91983018F4392F9927E3
:1021200002C038E09850881F719808F4719A000036
:1021300000007098EF93E2E0EA95F1F7EF91709A62
:10214000EF93E2E0EA95F1F7EF913A9561F7992381
:1021500011F7729AEF93E2E0EA95F1F7EF91729836
:10216000089570910501777F709305018AE090E0F2
:102170000E94B918709105017860709305018AE09A
:1021800090E00E94B9180E94C61008952A9873988A
:102190007FE372B9709105017F7E70930501EF9323
:1021A000E2E0EA95F1F7EF917091050170617093AB
:1021B0000501089581E00E94CF1881E00E94CF18A8
:1021C00081E00E94CF1880E0AA81BB818C93AA8114
:1021D000BB810C91073018F011F00C946111AA81A9
:1021E000BB818C91D2018C9381E00E94CF180E9418
:1021F0006316229681E00E94CB1880E0A881B98105
:102200008C93A881B9810C910F3718F011F00C94C0
:102210005911A881B9810C910F3318F011F00C9469
:1022200013110C94271170910501706870930501CA
:10223000709102017F7B70930201A881B9810C919A
:1022400040E4041BAC81BD810C930C943711709158
:1022500005017F777093050170910201706470939E
:102260000201A881B9818C91AC81BD818C93AC8134
:10227000BD818C91D2018C9381E00E94CF180E9485
:102280003B16229681E00E94CB1880E0D2018C930D
:1022900081E00E94CF180E94B316229681E00E942E
:1022A000CB18A881B9818C918F5F8C9310F40C941A
:1022B0000111AA81BB818C918F5F8C9310F40C94D7
:1022C000E71083E0481A80E0580A2696089581E0D6
:1022D0000E94CF1881E00E94CF1881E00E94CF18A1
:1022E00081E00E94CF1881E00E94CF1880E0A8858D
:1022F000B9858C93AA85BB858C91AE81BF818C9367
:1023000002E0AA85BB854C91049FAC81BD810C92F3
:1023100003E0AC81BD814C91041BAC81BD810C9369
:10232000AE81BF814C91A885B9850C91041718F036
:1023300011F00C94E012AE85BF850C91A885B9858B
:102340004C91040FAA81BB810C93AC85BD850C9187
:10235000AE81BF814C91040FA881B9810C93AA81F1
:10236000BB81BA93AA93AA81BB81BA93AA930E9414
:10237000E6122496AE85BF850C91AE81BF814C914B
:10238000040FAA81BB810C93AC85BD850C91A885F7
:10239000B9854C91040FA881B9810C93AA81BB81A6
:1023A000BA93AA93AA81BB81BA93AA930E94E61218
:1023B0002496AE85BF850C91AE81BF814C91041BE4
:1023C000AA81BB810C93AC85BD850C91A885B9858C
:1023D0004C91040FA881B9810C93AA81BB81BA9357
:1023E000AA93AA81BB81BA93AA930E94E61224966B
:1023F000AE85BF850C91A885B9854C91041BAA8137
:10240000BB810C93AC85BD850C91AE81BF814C9195
:10241000040FA881B9810C93AA81BB81BA93AA93B6
:10242000AA81BB81BA93AA930E94E6122496AE8534
:10243000BF850C91A885B9854C91041BAA81BB81ED
:102440000C93AC85BD850C91AE81BF814C91041B72
:10245000A881B9810C93AA81BB81BA93AA93AA815E
:10246000BB81BA93AA930E94E6122496AE85BF85DB
:102470000C91AE81BF814C91041BAA81BB810C934E
:10248000AC85BD850C91A885B9854C91041BA881AC
:10249000B9810C93AA81BB81BA93AA93AA81BB810B
:1024A000BA93AA930E94E6122496AE85BF850C913A
:1024B000AE81BF814C91040FAA81BB810C93AC8586
:1024C000BD850C91A885B9854C91041BA881B98163
:1024D0000C93AA81BB81BA93AA93AA81BB81BA93B8
:1024E000AA930E94E6122496AE85BF850C91A8851A
:1024F000B9854C91040FAA81BB810C93AC85BD8535
:102500000C91AE81BF814C91041BA881B9810C93C1
:10251000AA81BB81BA93AA93AA81BB81BA93AA93D9
:102520000E94E6122496AC81BD810C91003010F01F
:102530000C94B31204E0A885B9854C91049FAA813C
:10254000BB810C92AA81BB818C91865F8C93AC81FC
:10255000BD810C91AA81BB814C91040FAC81BD81DE
:102560000C930C94D912A885B9850C91AE81BF81CA
:102570004C91041BAA81BB810C9304E0AA81BB810E
:102580004C91049FAA81BB810C92AA81BB818C9142
:10259000865F8C93AC81BD810C91AA81BB814C91EB
:1025A000040FAC81BD810C93AE81BF818C918150B1
:1025B0008C93A885B9858C918F5F8C930C94901126
:1025C00085E0481A80E0580A2A96089581E00E9422
:1025D000CF1881E00E94CF1881E00E94CF1881E0DF
:1025E0000E94CF18AA85BB850C910F3318F011F00B
:1025F0000C94FC120C940813709105017068709390
:102600000501709102017F7B709302010C941213FB
:10261000709105017F7770930501709102017064DC
:1026200070930201A885B9850C9148E00E947F193A
:10263000AE81BF810C93AA85BB858C91AC81BD8195
:102640008C93A885B9850C9148E00E947F19AA81D6
:10265000BB818C9300EBAE81BF814C91042BA88190
:10266000B9810C93A881B9818C91D2018C9381E0BE
:102670000E94CF180E946316229681E00E94CB1818
:10268000AC81BD818C91A881B9818C9394E0A881A3
:10269000B9810E94291900E1A881B9814C91042BCC
:1026A000A881B9810C93A881B9818C91D2018C93B6
:1026B00081E00E94CF180E943B16229681E00E9482
:1026C000CB18AC81BD810C914FE00423A881B98166
:1026D0000C93A881B9818C91D2018C9381E00E94E6
:1026E000CF180E948B16229681E00E94CB1881E0C1
:1026F000A881B9818C93AA81BB819C91A881B98161
:102700000E941619A881B9818C91D2018C9381E025
:102710000E94CF180E94B316229681E00E94CB1827
:1027200084E0481A80E0580A2896089582E00E94C2
:10273000CF1882E00E94CF18A885B9850D91112786
:1027400049EF50E00E94D518AA81BB810D931C93DC
:10275000AA81BB810D911C910A501C4FAA81BB819B
:102760000D931C93AA81BB810D911C9140E058EF01
:1027700004231523AA81BB810D931C93AE81BF81D5
:102780000D9111274DEF50E00E94D518A881B98115
:102790000D931C93A881B9810D911C9107501E4F78
:1027A000A881B9810D931C9395E0A881B9810E94FD
:1027B0003119A881B9810D911C9140EE57E0042395
:1027C0001523A881B9810D931C93AA81BB810D911A
:1027D0001C91A881B9814D915C91042B152BAA8184
:1027E000BB810D931C93AC81BD810D91112749EFE5
:1027F00050E00E94D518A881B9810D931C93A8813F
:10280000B9810D911C910A501C4FA881B9810D937B
:102810001C939BE0A881B9810E943119AA81BB81D8
:102820000D911C91A881B9814D915C91042B152BC0
:10283000AA81BB810D931C93AA81BB818D919C9130
:10284000AA85BB858D939C9384E0481A80E0580A42
:102850002496089581E00E94CF1882E0A881B98172
:102860008C93AA81BB818C91D2018C9381E00E94D0
:10287000CF180E94C916229681E00E94CB18AA8127
:10288000BB810C91003011F00C945314A0E0B2E025
:102890008C9185FB16F40C94511481E0A881B981C8
:1028A0008C930C945E14A0E0B2E08C9185FB16F042
:1028B0000C945E1480E0A881B9818C93A881B981C1
:1028C0000C91023011F40C947314A881B9818C918D
:1028D000D2018C9381E00E94CF180E947914229635
:1028E00081E00E94CB1881E0481A80E0580A2296C5
:1028F0000895A881B9810C91003011F00C948314D3
:1029000011E10C94841410E112B900910801077CC4
:10291000009308010C6300930801A881B9810C9110
:10292000003011F00C94981488E790E00E94B918D8
:10293000A881B9818C9180FBA0E0B2E08C9185F9EF
:102940008C930895A885B9854D915C91A2E0B2E081
:102950000D911C910417150710F00C94B714A2E008
:10296000B2E08D919C91A885B9858D939C93AC81A3
:10297000BD814D915C91A2E0B2E00D911C910417D4
:10298000150710F00C94CC14A2E0B2E08D919C914C
:10299000AC81BD818D939C93AE81BF814D915C9143
:1029A000A4E0B2E00D911C910417150710F00C94EF
:1029B000E114A4E0B2E08D919C91AE81BF818D9332
:1029C0009C93AA81BB814D915C91A4E0B2E00D91F2
:1029D0001C910417150710F00C94F614A4E0B2E053
:1029E0008D919C91AA81BB818D939C93AC81BD817B
:1029F0004D915C91A885B9850D911C91041715071F
:102A000018F011F00C9406150C941615A885B985CC
:102A10000D911C91AC81BD818D919C91A885B9854A
:102A20008D939C93AC81BD810D931C93AA81BB8136
:102A30004D915C91AE81BF810D911C9104171507DA
:102A400018F011F00C9426150C943615AE81BF8148
:102A50000D911C91AA81BB818D919C91AE81BF810A
:102A60008D939C93AA81BB810D931C93A885B985F6
:102A70008D919C91D2018D939C9382E00E94CF18FE
:102A8000A885B9858D919C91D2018D939C9382E00C
:102A90000E94CF18A885B9858D919C91D2018D9304
:102AA0009C9382E00E94CF18A885B9858D919C9156
:102AB000D2018D939C9382E00E94CF180E94CF1682
:102AC000289688E00E94CB18AE81BF814D915C9121
:102AD000AA81BB818D919C91841B950B0196A88541
:102AE000B9852D913C91AC81BD81ED91FC91E21BAA
:102AF000F30B3196AF01A881B9811D912C91FA0198
:102B000020930B0112B900910801077D0093080181
:102B10000C6300930801319799F7019781F70895A5
:102B20001AE212B900910801077C009308010C63B6
:102B300000930801AC81BD811D902C90122D12B91B
:102B400000910801077D009308010C6300930801C0
:102B5000112D12B900910801077D009308010C6343
:102B600000930801122D12B900910801077D00930E
:102B700008010C6300930801112D12B9009108019E
:102B8000077D009308010C63009308011BE212B952
:102B900000910801077C009308010C630093080171
:102BA000AA81BB811D902C90122D12B900910801B1
:102BB000077D009308010C6300930801112D12B9E1
:102BC00000910801077D009308010C630093080140
:102BD000122D12B900910801077D009308010C63C2
:102BE00000930801112D12B900910801077D00938F
:102BF00008010C63009308011CE212B9009108015E
:102C0000077C009308010C6300930801A881B98137
:102C10001D912C9120930B0112B900910801077DA1
:102C2000009308010C63009308010895A8E1B2E045
:102C30008C9180FBA4E3B0E08C9181F98C93A8E1A6
:102C4000B2E08C9182FBA4E3B0E08C9180F98C938C
:102C5000A8E1B2E08C9181FBABE2B0E08C9186F907
:102C60008C93A8E1B2E08C9183FBABE2B0E08C9155
:102C700087F98C93089581E00E94CF18AA81BB81C7
:102C80000C914FE30423A881B9810C932A9873987F
:102C9000A881B9810C9140E4040F02B9709105013B
:102CA0007F7E70930501EF93E2E0EA95F1F7EF91F3
:102CB0007091050170617093050181E0481A80E010
:102CC000580A2296089581E00E94CF18AA81BB81FC
:102CD0000C9147E00423A881B9810C932A9873983A
:102CE000A881B9810C9148EB040F02B970910501DC
:102CF0007F7E70930501EF93E2E0EA95F1F7EF91A3
:102D00007091050170617093050181E0481A80E0BF
:102D1000580A2296089581E00E94CF18AA81BB81AB
:102D20000C914FE30423A881B9810C932A987398DE
:102D3000A881B9810C9140EC040F02B97091050192
:102D40007F7E70930501EF93E2E0EA95F1F7EF9152
:102D50007091050170617093050181E0481A80E06F
:102D6000580A229608952A9A7398A881B9818C915D
:102D700082B9709105017F7E70930501EF93E2E0C7
:102D8000EA95F1F7EF91709105017061709305017B
:102D90000895A881B9818C918093B30008951AE2B7
:102DA00012B900910801077C009308010C6300939D
:102DB0000801AE81BF812D911C9112B900910801CB
:102DC000077D009308010C6300930801122F12B9CC
:102DD00000910801077D009308010C63009308012E
:102DE000AA81BB812D911C9112B900910801077D28
:102DF000009308010C6300930801122F12B900918F
:102E00000801077D009308010C63009308011BE291
:102E100012B900910801077C009308010C6300932C
:102E20000801AC81BD812D911C9112B9009108015E
:102E3000077D009308010C6300930801122F12B95B
:102E400000910801077D009308010C6300930801BD
:102E5000A881B9812D911C9112B900910801077DBB
:102E6000009308010C6300930801122F12B900911E
:102E70000801077D009308010C63009308011CE220
:102E800012B900910801077C009308010C630093BC
:102E9000080108958E2E9F2E1BB6109201020895F0
:102EA000E82DF92D109001021BBE889408958C9195
:102EB00081508C930895ED91FC91EF5FFF4FFC934F
:102EC000EE93089515E000E000934E0210934F0238
:102ED000089540914E0250914F020DEF13E40E946D
:102EE000D5180D53114600934E0210934F0259917D
:102EF000499127D0089509D00E94D51800FC10D020
:102F0000089503D01ED001F8F9CF0024E89457FFAC
:102F100002C009D0689400F80BD010F8012408957D
:102F200002D009D00895509540954F5F5F4F0895A6
:102F3000E89417FF0895009510950F5F1F4F689450
:102F40000895352F242FE894452B11F468940895A3
:102F5000512F402F0027112780E1440F551F001FDC
:102F6000111F021B130B416018F4020F131F4E7F39
:102F70008A9599F708950E943C19802D11F065D02B
:102F8000FACF089581E067D015D080E864C08FE75C
:102F9000213039F08FEB223021F08FE8233009F017
:102FA0008FEC810F0C942B1888EE93E0E2D03197D0
:102FB000D9F7089583E09927DCC08AEF90E00E945A
:102FC000B9180F9A0E9A0D9A0C9A9A9A6C9A74984C
:102FD00085E090E00E94B918A29817981698159A63
:102FE000149AA29AEF93FF93E5E1F0E00E94A318F0
:102FF000FF91EF91A298BAD0A29AEF93FF93E5E1E7
:10300000F0E00E94A318FF91EF91A298AFD0A29A8E
:10301000EF93FF93E5E1F0E00E94A318FF91EF9199
:10302000A298A4D01498A29AEF93FF93E5E1F0E060
:103030000E94A318FF91EF91A29898D088E20BD03C
:103040008EE009D086E007D00895749A829505D065
:1030500004D08CD008957498F9CF859510F4149A03
:1030600001C01498859510F4159A01C0159885959E
:1030700010F4169A01C01698859510F4179A01C09D
:103080001798A29AEF93FF93E5E1F0E00E94A3184E
:10309000FF91EF91A298089500FC05D0089530D0DB
:1030A00005D001F8F9CF37D03FD00895842F952F60
:1030B000A62FB72FE894452B462B472B11F4689485
:1030C0000895402F512F622F732F00271127222799
:1030D0003327F0E2440F551F661F771F001F111F93
:1030E000221F331F081B190B2A0B3B0B416028F4CE
:1030F000080F191F2A1F3B1F4E7FFA9559F7089595
:103100000024E89477FF02C006D0689400F809D044
:1031100010F80124089512D04F5F5F4F6F4F7F4F1B
:103120000895E89437FF08950095109520953095FF
:103130000F5F1F4F2F4F3F4F689408954095509554
:103140006095709508953197F1F70895E03019F47E
:10315000F03019F40895000000003197F1F7089558
:10316000689462F80895E89462F8089581E090E028
:1031700000C0EF93FF93EE27E82BE92B31F0EAEF45
:10318000F0E03197F1F70197D1F7FF91EF910895B2
:10319000481A590A0895481A8827580A08959927FD
:1031A0005A924A92480E591E08950F92B801469FAE
:1031B0008001479F100D569F100D0F9008950F929C
:1031C0001F922F92C801D901489F80014A9F900108
:1031D0004B9F202C499F100D211D321D5A9F202CE2
:1031E000589F100D211D321D599F200D311D689FC4
:1031F000200D311D699F300D789F300D2F901F904D
:103200000F900895903039F08C91880F08F4816008
:103210009A95D9F78C930895903039F08C918695D2
:1032200008F480689A95D9F78C930895903029F026
:103230008C91880F9A95E9F78C930895903041F01E
:103240000D911C91000F111F9A95E1F71C930E939D
:103250000895903029F08C9186959A95E9F78C9392
:103260000895903041F00D911C91169507959A950F
:10327000E1F71C930E930895D895319628F48F9317
:103280008BB783958BBF8F910020089591E005C087
:1032900092E003C094E001C098E0EEDF0D929A95B1
:1032A000E1F70895880F991FE80FF91F05D0F0CFB7
:1032B000E80FF91F01D0EACF28F48F938BB78395DD
:1032C0008BBF8F9108950F9301E00BBF0F918894EE
:1032D00008950F930027F9CF0F9302E0F6CF0F93D5
:1032E00003E0F3CF0F9304E0F0CF040F151F261F68
:1032F000371F089504171507260737070895FF930A
:10330000881BF9E0001FFA9511F4FF910895881FBA
:10331000841B18F4840F8894F5CF0894F3CF544598
:10332000534C4100454C454354524F4E49430000D5
:00000001FF
