:100000000C947200189500001895000018950000D7
:10001000189500001895000018950000189500002C
:10002000189500001895000018950000189500001C
:10003000189500001895000018950000189500000C
:1000400018950000189500001895000018950000FC
:100050000C943203189500001895000018950000C4
:1000600018950000189500001895000018950000DC
:1000700018950000189500001895000018950000CC
:1000800018950000189500001895000018950000BC
:1000900018950000189500001895000018950000AC
:1000A000189500001895000018950000189500009C
:1000B000189500001895000018950000189500008C
:1000C000189500001895000018950000189500007C
:1000D000189500001895000018950000189500006C
:1000E000189500008FEF8DBFC0E8E8EF4E2E81E23B
:1000F0008EBFD1E2F0E25F2EA89584B7082E882744
:1001000084BF88E199278093600090936000EEEFB0
:10011000FFE1A0E0B2E088278D933197E9F70E94D4
:10012000C717662480E08093800081E0809381007F
:10013000709101017860709301017091010170610B
:100140007093010181EA8093A00082E08093A10076
:10015000279A9D9A81E085BD81EA84BD8FEF84B99D
:100160008FEF809301018FEF83BB8FEF8AB98FEF01
:100170008DB98FEF80BB8FEF87B98FEF81B98FEF8C
:1001800080930A018FEF809307018FEF8093040122
:10019000EEE0F8E00E94CE190E94A71770910002CD
:1001A0007064709300020E94C10CEAE0FBE00E94C0
:1001B000CE190E94A7170E94680F0E941B0874980E
:1001C000789470916F00716070936F008BE990E08C
:1001D000909385008093840081E08093810080E08B
:1001E0008093160281E090E0AEE1B2E08D939C93A3
:1001F000AEE1B2E00D911C91053050E0150718F00A
:1002000011F00C941C010E94B90FA7E2B2E08D918D
:100210009C91D2018D939C9382E00E9434190E949C
:100220008C0C229682E00E943019AEE1B2E00E946E
:10023000C01710F40C94F8008CE291E00E941E1993
:1002400080E090E0D2018D939C9382E00E9434196B
:100250000E948C0C229682E00E943019A6E1B2E046
:100260008C918F5F8C9381E090E0AEE1B2E08D9352
:100270009C93AEE1B2E00D911C91043650E015075D
:1002800018F011F00C94B5010E94B90FA2E0B2E091
:100290008D919C918A939A930E94CE17A3E2B2E02B
:1002A0000D931C93A4E0B2E08D919C918A939A9354
:1002B0000E94CE17A5E2B2E00D931C93A2E0B2E03B
:1002C0008D919C918A939A930E94CE17A9E2B2E0F5
:1002D0000D931C93A4E0B2E08D919C918A939A9324
:1002E0000E94CE17ABE2B2E00D931C93A3E2B2E002
:1002F0008D919C91D2018D939C9382E00E94341940
:10030000A5E2B2E08D919C91D2018D939C9382E005
:100310000E943419A9E2B2E08D919C91D2018D9393
:100320009C9382E00E943419ABE2B2E08D919C91E3
:10033000D2018D939C9382E00E943419A7E2B2E02F
:100340008D919C91D2018D939C9382E00E943419EF
:100350000E94870E2A968AE00E943019AEE1B2E030
:100360000E94C01710F40C9439018CE291E00E94B5
:100370001E1980E090E0D2018D939C9382E00E9450
:1003800034190E948C0C229682E00E943019A6E15A
:10039000B2E08C918F5F8C9381E090E0AEE1B2E0AF
:1003A0008D939C93AEE1B2E00D911C910A3050E028
:1003B000150718F011F00C9432020E94B90FA2E058
:1003C000B2E08D919C918A939A930E94CE17A5E2F8
:1003D000B2E00D931C93A4E0B2E08D919C918A93BE
:1003E0009A930E94CE17ABE2B2E00D931C938AE081
:1003F00090E0ADE2B2E08D939C93A5E2B2E08D91E6
:100400009C91D2018D939C9382E00E943419ABE2BF
:10041000B2E08D919C91D2018D939C9382E00E94D9
:100420003419ADE2B2E08D919C91D2018D939C93F1
:1004300082E00E943419A7E2B2E08D919C91D20132
:100440008D939C9382E00E9434190E94CA0C2896D6
:1004500088E00E943019AEE1B2E00E94C01710F4AB
:100460000C94D2018CE291E00E941E19A6E1B2E048
:100470008C918F5F8C930E9442180E942718E8EE9F
:10048000F3E30E94CE190E9420188FEB13E00E9424
:100490003618EEEEF3E30E94CE190E94201882E097
:1004A0008093A1008AE090E09093AB008093AA0033
:1004B000A6E1B2E08C918F5F8C9380E183B980E2FA
:1004C00083B980E483B980E88093000181E0D201A0
:1004D0008C9381E00E9434190E94F40F229681E0EF
:1004E0000E943019E1E0F0E00E94391882E0D20168
:1004F0008C9381E00E9434190E94F40F229681E0CF
:100500000E943019E1E0F0E00E94391880E0D20149
:100510008C9381E00E9434190E94F40F229681E0AE
:100520000E943019A6E1B2E08C918F5F8C9388E233
:1005300080934E02E1E0F0E00E94391880E580935C
:100540004E0280E183B980E283B980E483B980E818
:1005500080930001A6E1B2E08C918F5F8C9381E0E3
:10056000D2018C9381E00E9434198AE0D2018C93ED
:1005700081E00E9434190E941010249682E00E94AB
:1005800030198CE291E00E941E1982E0D2018C9316
:1005900081E00E9434198AE0D2018C9381E00E94AC
:1005A00034190E941010249682E00E943019A6E1AE
:1005B000B2E08C918F5F8C930E940E110E943711D4
:1005C00084E1D2018C9381E00E9434198AE0D20147
:1005D0008C9381E00E9434198AE0D2018C9381E0EF
:1005E0000E9434190E94C411269683E00E9430199B
:1005F00080E090E0D2018D939C9382E00E943419B8
:100600000E948C0C229682E00E94301981E085BD08
:100610008AE090E0ABE1B2E08D939C93ABE1B2E075
:100620000D911C91083C50E015071CF011F00C9442
:100630002E03ABE1B2E08C9188BD84E690E00E948D
:100640001E19ABE1B2E00D911C910E5C1F4FABE1A6
:10065000B2E00D931C9313F00C940E0370E078BD80
:100660000C94EF000F921F922F923F924F925F9245
:100670007F92AF92BF920F931F932F933F934F930D
:100680005F936F937F938F939F93AF93BF93CF931A
:10069000DF93EF93FF938FB78F938BB78F93882759
:1006A0008BBF80918100887F809381008FE496EFDB
:1006B000909385008093840081E080938100AFE473
:1006C000B2E08C918F5F8C9300914F02033618F04B
:1006D00011F00C946D030C94700380E080934F0232
:1006E00040914E0200914F02041718F011F00C9443
:1006F0007B030C948203709105017068709305016F
:100700000C948703709105017F7770930501A7E131
:10071000B2E08C918F5F8C9300911702063018F035
:1007200011F00C9495030C94980381E080931702C8
:1007300080911602D2018C9381E00E94341980913D
:100740001702D2018C9381E00E9434190E94741028
:10075000249682E00E943019ADE1B2E08C918F5F67
:100760008C9300911D02083018F011F00C94BA031C
:100770000C94C70380E080931D025D9AEF93FF9372
:10078000E5E1F0E00E940819FF91EF915D98EAEF32
:10079000F7E00E94CE19ADE1B2E08C919927A8E272
:1007A000B0E00E94BD1980E189B9EF93FF93E5E1C4
:1007B000F0E00E940819FF91EF9180E189B98F91D3
:1007C0008BBF8F918FBFFF91EF91DF91CF91BF9141
:1007D000AF919F918F917F916F915F914F913F91D9
:1007E0002F911F910F91BF90AF907F905F904F908E
:1007F0003F902F901F900F901895C6C6C6FEFE6CB6
:1008000038100000013012064C24200F00040108AB
:1008100008000000000000000000183C3C18180010
:100820001800666624000000000036367F367F36EA
:100830003600187C063C603E1800006333180C66D6
:1008400063001C361C6E3B336E0018180C00000051
:10085000000030180C0C0C1830000C183030301818
:100860000C0000663CFF3C6600000018187E18185B
:100870000000000000000018180C0000007E0000BE
:10088000000000000000001818006030180C06037B
:1008900001001C36636B63361C00181C18181818EE
:1008A0007E003E6360380C667F003E63603C6063A0
:1008B0003E00383C36337F3078007F03033F60636F
:1008C0003E001C06033F63633E007F6330180C0C40
:1008D0000C003E63633E63633E003E63637E6030B4
:1008E0001E00001818000018180000181800001842
:1008F000180C6030180C1830600000007E00007E7C
:100900000000060C1830180C06003E633018180062
:1009100018003E637B7B7B031E001C36637F636392
:1009200063003F66663E66663F003C6603030366FF
:100930003C001F36666666361F007F46161E16464A
:100940007F007F46161E16060F003C660303736683
:100950005C006363637F636363003C1818181818B6
:100960003C007830303033331E006766361E366602
:1009700067000F06060646667F0063777F7F6B631E
:10098000630063676F7B736363003E6363636363EA
:100990003E003F66663E06060F003E636363637378
:1009A0003E703F66663E366667003C660C183066F1
:1009B0003C007E7E5A1818183C00636363636363CF
:1009C0003E006363636363361C006363636B6B7F2A
:1009D00036006363361C366363006666663C18182F
:1009E0003C007F6331184C667F003C0C0C0C0C0CF7
:1009F0003C0003060C18306040003C303030303092
:100A00003C00081C366300000000000000000000ED
:100A100000FF0C1830000000000000001E303E33C4
:100A20006E0007063E6666663B0000003E63036399
:100A30003E0038303E3333336E0000003E637F03A8
:100A40003E003C66061F06060F0000006E33333E74
:100A5000301F0706366E6666670018001C181818E7
:100A60003C00600060606066663C070666361E36C5
:100A700067001C18181818183C000000377F6B6BB3
:100A80006B0000003B666666660000003E636363C1
:100A90003E0000003B66663E060F00006E33333EAC
:100AA000307800003B6E06060F0000007E033E60BB
:100AB0003F000C0C3F0C0C6C380000003333333318
:100AC0006E000000636363361C000000636B6B7F85
:100AD0003600000063361C36630000006363637EEB
:100AE000603F00007E32184C7E007018180E1818F7
:100AF000700018181818181818000E181870181800
:100B00000E006E3B0000000000000D105F2021224F
:100B1000232425262728292A2B2C2D2E2F3031322D
:100B2000333435363738393A3B3C3D3E3F4041421D
:100B3000434445464748494A4B4C4D4E4F5051520D
:100B4000535455565758595A5B5C5D5E5F606162FD
:100B5000636465666768696A6B6C6D6E6F707172ED
:100B6000737475767778797A7B7C7D7E05000000DA
:100B70000000000000000002707E40400378007812
:100B800000000006090B79090F49008000400000B1
:100B900005784CFF46234040E0C0800B187C447C25
:100BA0000304082744070100004080000000C04003
:100BB000C0800A0103047C4F53210C080080C04010
:100BC000404080C0404080026060000004031F205D
:100BD0004000E010080440201C0708106080052831
:100BE000387C28280000000000070404043F0404A7
:100BF00004000000800000000200005020040101F9
:100C00000101000000000100400400061840C0007F
:100C10000000060E3F4040601F00804040C00003BF
:100C2000207F0040C04006004041427C104040C050
:100C30004040C0050060444C3740404040800601C1
:100C40000519317F0100000000C000051050584F09
:100C500002404040800006061F3C684C4700804030
:100C600040C080054040435C600040800000053982
:100C70004C467B31804040C08006183E4242633E75
:100C80000040408000000208084040020808506010
:100C900007040A0A091110200000000000808007E4
:100CA0000A0A0A0A0A0A0A000000000000000720D7
:100CB000101111090A048080000000000004704037
:100CC0004678004040000B0C10234E58505B4E30CD
:100CD0001B006010D0484888C84890204009000098
:100CE000071A723E07010040C04000000040C040AB
:100CF00007407F4444446E3B40C0404040C08007B2
:100D00001F3140404020710080404040C08008407A
:100D1000407F404040313F4040C0404040808008DC
:100D200040407F44444E60004040C04040404080CE
:100D30000740407F44444E604040C04000000008EF
:100D40001F316040402477040080C0404040C00014
:100D500008407F440404447F4040C040000040C03D
:100D60004003407F4040C040050040407F40C0C03D
:100D70004080000A40407F4C0E536140400040409C
:100D8000C0400000C0C040400840407F400000001C
:100D9000004040C040404040C00C407F701C0701F4
:100DA000010C307F404040C0400000C0800040C087
:100DB000404009407F70180C07417F4040C0400010
:100DC000000080C00009043F20404040603F1F00F9
:100DD0008080404040C080000740407F44447C38D1
:100DE0004040C04000000009063F20404040603FB6
:100DF0001F0080C0406060F090100940407F444672
:100E0000793800004040C0400080C0404006394C66
:100E100044267301C0404040C000076040407F400E
:100E20004060004040C04000000940407F4000005A
:100E3000407F40000080C04040C080000940607892
:100E40004F030106704000000000C0800000000C4D
:100E500040707C0741667C47014678400000008076
:100E6000C0000000C0000000094040615B0C0E5350
:100E7000604040C0C0000040C0C040094060705C9D
:100E8000070450604000000040C0404000000800DF
:100E90007043465C70604140C040404040C0000329
:100EA0007F4040F8080803600C01000080034040C8
:100EB0007F0808F8060418604030040000000000B5
:100EC00000070000000000000008080808080808E3
:100ED0000240200000050C09090F00C04040C0403E
:100EE00006407F0C080C0700C04040C08004070883
:100EF000080C8040404006070C08487F0080C04036
:100F000040C04004070A0A0E8040404005083F48A0
:100F1000486040C040000006000E09090F0810F8A4
:100F20004848487007407F0408080F0040C0400050
:100F300040C04003084F0040C0400300084F08086D
:100F4000F007407F020308080040C04000C0404056
:100F500003407F0040C0400B080F0408080F04083E
:100F6000080F0040C0400040C0400040C04007089B
:100F70000F0408080F0040C0400040C040050708AB
:100F8000080C0780C040408006080F0C080C0708BA
:100F9000F84840C08006070C08080F0080C0404891
:100FA000F80804080F0C0840C04000040E0B0D00A8
:100FB000C040408004083F080000C0404007080FC0
:100FC0000000080F0000C0404040C04006080E0B63
:100FD00000090C000080C0000009080E0B080E0B71
:100FE000000B0C000080800000C0000006080C0F01
:100FF000030D0840C00000C04006080E0B00090C9D
:10100000080898E00000060008090E0C0840C040DF
:101010004040C003023D4000F008017FF8044068F2
:101020003D0208D8F000070102020301010300009D
:10103000000000000000009108010D61009308010C
:10104000009109010D6100930901009108010260FE
:10105000009308010091090102600093090182E0F8
:101060008093B100249A81E88093B0000091090137
:101070000064009309010FEF03B900930C018FEE98
:1010800090E0A2E0B2E08D939C938FE391E0A4E026
:10109000B2E08D939C93009108010D7F00930801AD
:1010A0008AE090E00E941E19009108010D610093F2
:1010B00008010091080102600093080184E190E0BA
:1010C0000E941E191FEC12B900910801067E0093C0
:1010D00008010D610093080110E012B900910801A8
:1010E000067F009308010D61009308011BE812B907
:1010F00000910801067F009308010D61009308012B
:1011000010E312B900910801067F009308010D61F8
:10111000009308011DEE12B900910801067E0093AC
:1011200008010D610093080117E612B9009108014A
:10113000067F009308010D610093080113E012B9C6
:1011400000910801067F009308010D6100930801DA
:1011500012E112B900910801067F009308010D61A8
:101160000093080111E812B900910801067F00936D
:1011700008010D610093080118EE12B900910801F1
:10118000067E009308010D610093080115E812B96D
:1011900000910801067F009308010D61009308018A
:1011A00010E112B900910801067F009308010D615A
:1011B000009308011AE712B900910801067F009315
:1011C00008010D61009308011BEC12B900910801A0
:1011D000067E009308010D610093080119E312B91E
:1011E00000910801067F009308010D61009308013A
:1011F0001CE212B900910801067F009308010D61FD
:101200000093080110E012B900910801067F0093D5
:1012100008010D610093080114E312B9009108015F
:10122000067F009308010D610093080112E012B9D6
:1012300000910801067F009308010D6100930801E9
:1012400017EF12B900910801067E009308010D61A5
:101250000093080110E212B900910801067F009383
:1012600008010D61009308011AEE12B900910801FE
:10127000067E009308010D610093080110E012B989
:1012800000910801067F009308010D610093080199
:1012900010E012B900910801067F009308010D616A
:1012A0000093080110EC12B900910801067E00932A
:1012B00008010D61009308011BE112B900910801BA
:1012C000067F009308010D610093080111EC12B92B
:1012D00000910801067E009308010D61009308014A
:1012E00010E112B900910801067F009308010D6119
:1012F0000093080115EC12B900910801067E0093D5
:1013000008010D61009308011FE312B90091080163
:10131000067F009308010D61009308011CE312B9D8
:1013200000910801067F009308010D6100930801F8
:1013300017EC12B900910801067E009308010D61B7
:101340000093080117EB12B900910801067F009382
:1013500008010D610093080116E312B9009108011C
:10136000067E009308010D610093080118E012B990
:1013700000910801067F009308010D6100930801A8
:101380001AE312B900910801067E009308010D616D
:101390000093080115E512B900910801067F00933A
:1013A00008010D610093080111EB12B900910801C9
:1013B000067E009308010D610093080110E012B948
:1013C00000910801067F009308010D610093080158
:1013D0001BE112B900910801067F009308010D611D
:1013E0000093080116EB12B900910801067E0093E4
:1013F00008010D61009308011AE012B9009108017B
:10140000067F009308010D610093080112EA12B9EA
:1014100000910801067F009308010D610093080107
:1014200012EF12B900910801067E009308010D61C8
:101430000093080110E012B900910801067F0093A3
:1014400008010D610093080116E212B9009108012C
:10145000067E009308010D610093080111E012B9A6
:1014600000910801067F009308010D6100930801B7
:1014700010EE12B900910801067E009308010D617B
:10148000009308011FE012B900910801067F009344
:1014900008010D61009308011AE212B900910801D8
:1014A000067F009308010D610093080118E212B94C
:1014B00000910801067F009308010D610093080167
:1014C00018E012B900910801067F009308010D6130
:1014D000009308011EE012B900910801067F0093F5
:1014E00008010D610093080118E012B9009108018C
:1014F000067F009308010D610093080114E512B9FD
:1015000000910801067F009308010D610093080116
:1015100019EA12B900910801067F009308010D61D4
:101520000093080113E412B900910801067F0093AB
:1015300008010D61009308011AE012B90091080139
:10154000067F009308010D61009308011FE012B9A6
:1015500000910801067F009308010D6100930801C6
:1015600010E012B900910801067F009308010D6197
:101570000093080110E012B900910801067F009362
:1015800008010D610093080110E012B900910801F3
:10159000067F009308010D610093080110E012B965
:1015A00000910801067F009308010D610093080176
:1015B00011EE12B900910801067E009308010D6139
:1015C0000093080110E012B900910801067F009312
:1015D00008010D610093080115E112B9009108019D
:1015E000067F009308010D610093080117E112B90D
:1015F00000910801067F009308010D610093080126
:1016000017E012B900910801067F009308010D61EF
:101610000093080111E112B900910801067F0093BF
:1016200008010D610093080116E012B9009108014C
:10163000067F009308010D61009308011BE212B9B7
:1016400000910801067F009308010D6100930801D5
:1016500016E512B900910801067F009308010D619B
:10166000009308011CE312B900910801067F009362
:1016700008010D610093080115E012B900910801FD
:10168000067F009308010D610093080110E112B973
:1016900000910801067F009308010D610093080185
:1016A0001FE012B900910801067F009308010D6147
:1016B000009308011FE312B900910801067F00930F
:1016C00008010D61009308011FE312B900910801A0
:1016D000067F009308010D61009308011FE012B915
:1016E00000910801067F009308010D610093080135
:1016F00011E112B900910801067E009308010D6105
:101700000093080185E090E00E941E1919E212B9C9
:1017100000910801067E009308010D610093080105
:101720008AE090E00E941E1980E090E0D2018D9343
:101730009C9382E00E9434190E948C0C229682E0D5
:101740000E94301980E0D2018C9381E00E9434190C
:101750008FEFD2018C9381E00E94341980E991E0EF
:10176000D2018D939C9382E00E9434190E94BD0B9C
:10177000269684E00E943019089584E00E9434196E
:1017800081E00E943419AC81BD810D911C9122270A
:10179000332748EE53E060E070E00E944419AA81CC
:1017A000BB810D931D932D933D93AE81BF814C91D1
:1017B000A885B9850C91041710F00C94340CAE81F7
:1017C000BF810C91A885B9854C91041BA881B98172
:1017D0000C93AA81BB810D911D912D913C91A88103
:1017E000B9814C915527662777270E94BB18AA819B
:1017F000BB814D935D936D937D93AA81BB818D9148
:101800009C91AC81BD818D939C93A885B9858C9169
:10181000A881B9818C93AE81BF814C91A881B98197
:101820000C91041718F011F00C94320CA881B981B6
:101830008C91D2018C9381E00E9434190E9487140C
:10184000229681E00E943019AC81BD81ED91FC911E
:101850000E940B19A881B9818C918F5F8C9310F431
:101860000C940B0C0C94860CA885B9850C91AE8158
:10187000BF814C91041BA881B9810C93AA81BB81C3
:101880000D911D912D913C91A881B9814C915527C5
:10189000662777270E94BB18AA81BB814D935D9371
:1018A0006D937D93AA81BB818D919C91AC81BD810B
:1018B0008D939C93A885B9858C91A881B9818C93CF
:1018C000A881B9814C91AE81BF810C91041718F0A9
:1018D00011F00C94860CA881B9818C91D2018C9363
:1018E00081E00E9434190E948714229681E00E94B0
:1018F0003019AC81BD81ED91FC910E940B19A8813A
:10190000B9810E94BC1710F00C94600C85E0481A55
:1019100080E0580A2496089580E090E0D2018D93EB
:101920009C9382E00E94341980E090E0D2018D9374
:101930009C9382E00E943419A2E0B2E08D919C91C8
:10194000D2018D939C9382E00E943419A4E0B2E00E
:101950008D919C91D2018D939C9382E00E943419C9
:10196000A885B9858D919C91D2018D939C9382E03D
:101970000E9434190E94FF142A968AE00E943019AE
:1019800008958092090290920A0280910102809348
:101990000B02089582E00E94341982E00E943419FB
:1019A00082E00E94341982E00E94341984E00E948F
:1019B000341984E00E94341984E00E94341984E0D0
:1019C0000E94341982E00E94341982E00E94341986
:1019D00082E00E943419A88DB98D8D919C91AC81C3
:1019E000BD818D939C93AC81BD810D911D9117FBA1
:1019F0001EF42FEF3FEF02C022273327AC81BD81B9
:101A00004D915D9157FB1EF46FEF7FEF02C066278B
:101A100077270E944419AC85BD850D931D932D93A6
:101A20003D93AC81BD810D911C914FEF5FEF0E9402
:101A30003A19A889B9890D931C93AC81BD810D9188
:101A40001C914FEF5FEF0E943A19AE85BF850D9351
:101A50001C93A889B9898D919C91AC89BD898D937E
:101A60009C93AC81BD814D915C91AC89BD890D91F8
:101A70001C91041715071CF011F00C94810EAC8911
:101A8000BD890D911D9117FB1EF42FEF3FEF02C092
:101A900022273327AC89BD894D915D9157FB1EF4F8
:101AA0006FEF7FEF02C0662777270E944419AA854F
:101AB000BB850D931D932D933D93AE85BF858D9171
:101AC0009C91AA89BB898D939C93AC81BD814D91DA
:101AD0005C91AA89BB890D911C91041715071CF014
:101AE00011F00C947B0EAA89BB890D911D9117FBF7
:101AF0001EF42FEF3FEF02C022273327AA89BB89AC
:101B00004D915D9157FB1EF46FEF7FEF02C066278A
:101B100077270E944419A885B9850D931D932D93AD
:101B20003D93AC8DBD8D8D919C91AE81BF818D9388
:101B30009D9388278D938C93AE81BF810D911D91CC
:101B40002D913C91AA89BB894D915D9157FB1EF463
:101B50006FEF7FEF02C0662777270E94DA19AE8108
:101B6000BF810D931D932D933D93AE81BF818D91C8
:101B70009C91AA81BB818D939C93AA8DBB8D8D91E5
:101B80009C91AE81BF818D939D9388278D938C937B
:101B9000AE81BF810D911D912D913C91AC89BD8984
:101BA0004D915D9157FB1EF46FEF7FEF02C06627EA
:101BB00077270E94DA19AE81BF810D931D932D9373
:101BC0003D93AE81BF818D919C91A881B9818D9308
:101BD0009C93A885B9850D911D912D913C91AA8565
:101BE000BB854D915D916D917C910E94DA19AE811A
:101BF000BF810D931D932D933D93AC85BD854D9174
:101C00005D916D917C91AE81BF810D911D912D9162
:101C10003C910E94DF1981E014F009F080E08F937D
:101C2000AA81BB814D915C9100E010E0041715077B
:101C300081E010F009F080E09F9189238F93A2E06A
:101C4000B2E04D915C91AA81BB810D911C9104176A
:101C5000150781E008F080E09F9189238F93A88188
:101C6000B9814D915C9100E010E00417150781E007
:101C700010F009F080E09F9189238F93A4E0B2E0F7
:101C80004D915C91A881B9810D911C9104171507A4
:101C900081E008F080E09F918923882311F40C945F
:101CA000750EAA81BB818D919C91D2018D939C93DD
:101CB00082E00E943419AA81BB818D919C91D2014E
:101CC0008D939C9382E00E943419AA8DBB8D8D91D7
:101CD0009C91D2018D939C9382E00E9434190E94C2
:101CE000ED15269686E00E943019AA89BB890E94CC
:101CF000C0170C94650DAC89BD890E94C0170C9467
:101D0000310D8EE1481A80E0580A66960895A8853C
:101D1000B9858D919C91D2018D939C9382E00E9414
:101D20003419A885B9858D919C91D2018D939C938E
:101D300082E00E943419A885B9858D919C91D201C9
:101D40008D939C9382E00E943419AC85BD858D9162
:101D50009C91D2018D939C9382E00E943419A885B6
:101D6000B9858D919C91D2018D939C9382E00E94C4
:101D700034190E94FF142A968AE00E943019A8851F
:101D8000B9858D919C91D2018D939C9382E00E94A4
:101D90003419A885B9858D919C91D2018D939C931E
:101DA00082E00E943419AC85BD858D919C91D20151
:101DB0008D939C9382E00E943419A885B9858D91FA
:101DC0009C91D2018D939C9382E00E943419A88546
:101DD000B9858D919C91D2018D939C9382E00E9454
:101DE00034190E94FF142A968AE00E943019A885AF
:101DF000B9858D919C91D2018D939C9382E00E9434
:101E00003419AC81BD818D919C91D2018D939C93AD
:101E100082E00E943419A885B9858D919C91D201E8
:101E20008D939C9382E00E943419A885B9858D9189
:101E30009C91D2018D939C9382E00E943419A885D5
:101E4000B9858D919C91D2018D939C9382E00E94E3
:101E500034190E94FF142A968AE00E943019AC813E
:101E6000BD818D919C91D2018D939C9382E00E94C3
:101E70003419A885B9858D919C91D2018D939C933D
:101E800082E00E943419A885B9858D919C91D20178
:101E90008D939C9382E00E943419A885B9858D9119
:101EA0009C91D2018D939C9382E00E943419A88565
:101EB000B9858D919C91D2018D939C9382E00E9473
:101EC00034190E94FF142A968AE00E94301908955E
:101ED000809211029092120280910102809313026B
:101EE0000E94AD17AEE0B2E00E94A1190C920E94D0
:101EF000A7170E94AD17AFE0B2E00E94A1190C92A3
:101F00000E94A717AFE0B2E08C9185FBA0E0B2E0A1
:101F10008C9184F98C93AFE0B2E08C918F718C93AB
:101F20000E94AD17A0E1B2E00E94A1190C920E949C
:101F3000A717A1E1B2E00D911C910D5F1F4FA1E128
:101F4000B2E00D931C9300910E0247E0040FA4E150
:101F5000B2E00C93A4E1B2E00C9148E00E94E419D5
:101F60000C930091140248E0049FA5E1B2E00C92AA
:101F700008958FEF90E08A939A930E94CE17A0E283
:101F8000B2E00C938FEF90E08A939A930E94CE1761
:101F9000A1E2B2E00C938FEF90E08A939A930E94B3
:101FA000CE17A2E2B2E00C93A7E2B2E0BA93AA93F2
:101FB00080912002D2018C9381E00E94341980919B
:101FC0002102D2018C9381E00E9434198091220277
:101FD000D2018C9381E00E9434190E94F313289659
:101FE00083E00E9430190895A881B9810C910130D5
:101FF00011F00C940010A398A49A2F9A0C940F102F
:10200000A881B9810C91023011F00C940C10A39AA4
:10201000A4982F9A0C940F10A398A4982F98089521
:1020200081E090E0ABE1B2E08D939C93A881B9810F
:102030004D915527ABE1B2E00D911C9104171507A6
:102040001CF011F00C947310AA81BB810C9101302B
:1020500011F00C942E1081E080931802AA81BB81AC
:102060000C91023011F00C94381088E08093180223
:1020700081E090E0A9E1B2E08D939C93A9E1B2E008
:102080000D911C91023050E015071CF011F00C94DA
:102090006D100E947316AA81BB810C91013011F062
:1020A0000C94571092E0A8E1B2E00E946719AA814F
:1020B000BB810C91023011F00C94631092E0A8E106
:1020C000B2E00E94711984E690E00E941E19A9E115
:1020D000B2E00E94C0170C943E10ABE1B2E00E9447
:1020E000C0170C9416100895AA81BB810C91093079
:1020F00018F011F00C947E100C94821089E0AA81E3
:10210000BB818C93709102017B7F7093020181E00F
:1021100090E0A2E5B2E08D939C93A881B9819C9157
:10212000A2E5B2E00E948319A2E5B2E042E00E947B
:10213000B41798E0A2E5B2E00E948319E4E0F8E069
:102140000E94CE19AA81BB818C919927A4E5B2E0A7
:102150000E94B719A4E5B2E042E00E94B417A4E5DA
:10216000B2E00D911C91A2E5B2E04D915C91042B7F
:10217000152BA4E5B2E00D931C9390E1709104013E
:102180007061709304017091040178607093040190
:1021900070910501786070930501A4E5B2E0129694
:1021A0008E91983018F4392F992702C038E0985052
:1021B000881F709105017F7E7093050128F470914E
:1021C0000501706170930501000000007091050128
:1021D000777F70930501EF93E2E0EA95F1F7EF91D5
:1021E00070910501786070930501EF93E2E0EA9544
:1021F000F1F7EF913A95E1F6992391F6709102018A
:10220000746070930201EF93E2E0EA95F1F7EF91C9
:10221000709102017B7F7093020108957091050116
:10222000777F709305018AE090E00E941E197091FB
:1022300005017860709305018AE090E00E941E1904
:102240000E94231108952A9873987FE372B97091C0
:1022500005017F7E70930501EF93E2E0EA95F1F7C7
:10226000EF9170910501706170930501089581E00F
:102270000E94341981E00E94341981E00E943419CF
:1022800080E0AA81BB818C93AA81BB810C9107302D
:1022900018F011F00C94BE11AA81BB818C91D2016F
:1022A0008C9381E00E9434190E94C016229681E02E
:1022B0000E94301980E0A881B9818C93A881B981EE
:1022C0000C910F3718F011F00C94B611A881B98158
:1022D0000C910F3318F011F00C9470110C948411C0
:1022E00070910501706870930501709102017F7B08
:1022F00070930201A881B9810C9140E4041BAC8168
:10230000BD810C930C949411709105017F777093AB
:10231000050170910201706470930201A881B98176
:102320008C91AC81BD818C93AC81BD818C91D201AB
:102330008C9381E00E9434190E949816229681E0C5
:102340000E94301980E0D2018C9381E00E94341900
:102350000E941017229681E00E943019A881B9814D
:102360008C918F5F8C9310F40C945E11AA81BB81C9
:102370008C918F5F8C9310F40C94441183E0481A75
:1023800080E0580A2696089581E00E94341981E081
:102390000E94341981E00E94341981E00E943419AE
:1023A00081E00E94341980E0A885B9858C93AA85C4
:1023B000BB858C91AE81BF818C9302E0AA85BB85E1
:1023C0004C91049FAC81BD810C9203E0AC81BD8136
:1023D0004C91041BAC81BD810C93AE81BF814C91AB
:1023E000A885B9850C91041718F011F00C943D13D1
:1023F000AE85BF850C91A885B9854C91040FAA8143
:10240000BB810C93AC85BD850C91AE81BF814C9195
:10241000040FA881B9810C93AA81BB81BA93AA93B6
:10242000AA81BB81BA93AA930E9443132496AE85D6
:10243000BF850C91AE81BF814C91040FAA81BB81F5
:102440000C93AC85BD850C91A885B9854C91040F82
:10245000A881B9810C93AA81BB81BA93AA93AA815E
:10246000BB81BA93AA930E9443132496AE85BF857D
:102470000C91AE81BF814C91041BAA81BB810C934E
:10248000AC85BD850C91A885B9854C91040FA881B8
:10249000B9810C93AA81BB81BA93AA93AA81BB810B
:1024A000BA93AA930E9443132496AE85BF850C91DC
:1024B000A885B9854C91041BAA81BB810C93AC857E
:1024C000BD850C91AE81BF814C91040FA881B9816B
:1024D0000C93AA81BB81BA93AA93AA81BB81BA93B8
:1024E000AA930E9443132496AE85BF850C91A885BC
:1024F000B9854C91041BAA81BB810C93AC85BD8529
:102500000C91AE81BF814C91041BA881B9810C93C1
:10251000AA81BB81BA93AA93AA81BB81BA93AA93D9
:102520000E9443132496AE85BF850C91AE81BF8176
:102530004C91041BAA81BB810C93AC85BD850C9189
:10254000A885B9854C91041BA881B9810C93AA81F7
:10255000BB81BA93AA93AA81BB81BA93AA930E9422
:1025600043132496AE85BF850C91AE81BF814C91FB
:10257000040FAA81BB810C93AC85BD850C91A88505
:10258000B9854C91041BA881B9810C93AA81BB81A8
:10259000BA93AA93AA81BB81BA93AA930E944313C8
:1025A0002496AE85BF850C91A885B9854C91040F02
:1025B000AA81BB810C93AC85BD850C91AE81BF8196
:1025C0004C91041BA881B9810C93AA81BB81BA9359
:1025D000AA93AA81BB81BA93AA930E94431324961B
:1025E000AC81BD810C91003010F00C94101304E00C
:1025F000A885B9854C91049FAA81BB810C92AA81C0
:10260000BB818C91865F8C93AC81BD810C91AA813A
:10261000BB814C91040FAC81BD810C930C9436139B
:10262000A885B9850C91AE81BF814C91041BAA810C
:10263000BB810C9304E0AA81BB814C91049FAA81C9
:10264000BB810C92AA81BB818C91865F8C93AC81FB
:10265000BD810C91AA81BB814C91040FAC81BD81DD
:102660000C93AE81BF818C9181508C93A885B985E4
:102670008C918F5F8C930C94ED1185E0481A80E06B
:10268000580A2A96089581E00E94341981E00E9438
:10269000341981E00E94341981E00E943419AA851E
:1026A000BB850C910F3318F011F00C9459130C9456
:1026B00065137091050170687093050170910201B6
:1026C0007F7B709302010C946F13709105017F77EB
:1026D0007093050170910201706470930201A885E6
:1026E000B9850C9148E00E94E419AE81BF810C933A
:1026F000AA85BB858C91AC81BD818C93A885B98559
:102700000C9148E00E94E419AA81BB818C9300EBF4
:10271000AE81BF814C91042BA881B9810C93A88113
:10272000B9818C91D2018C9381E00E9434190E946E
:10273000C016229681E00E943019AC81BD818C9137
:10274000A881B9818C9394E0A881B9810E948E19E7
:1027500000E1A881B9814C91042BA881B9810C9327
:10276000A881B9818C91D2018C9381E00E943419A7
:102770000E949816229681E00E943019AC81BD819A
:102780000C914FE00423A881B9810C93A881B981F1
:102790008C91D2018C9381E00E9434190E94E8163A
:1027A000229681E00E94301981E0A881B9818C9342
:1027B000AA81BB819C91A881B9810E947B19A881C3
:1027C000B9818C91D2018C9381E00E9434190E94CE
:1027D0001017229681E00E94301984E0481A80E0A8
:1027E000580A2896089582E00E94341982E00E94D7
:1027F0003419A885B9850D91112749EF50E00E9441
:102800003A19AA81BB810D931C93AA81BB810D91BA
:102810001C910A501C4FAA81BB810D931C93AA8165
:10282000BB810D911C9140E058EF04231523AA8130
:10283000BB810D931C93AE81BF810D9111274DEF8C
:1028400050E00E943A19A881B9810D931C93A88188
:10285000B9810D911C9107501E4FA881B9810D932C
:102860001C9395E0A881B9810E949619A881B9812D
:102870000D911C9140EE57E004231523A881B981E6
:102880000D931C93AA81BB810D911C91A881B981E4
:102890004D915C91042B152BAA81BB810D931C9348
:1028A000AC81BD810D91112749EF50E00E943A198A
:1028B000A881B9810D931C93A881B9810D911C91B8
:1028C0000A501C4FA881B9810D931C939BE0A881ED
:1028D000B9810E949619AA81BB810D911C91A88192
:1028E000B9814D915C91042B152BAA81BB810D936D
:1028F0001C93AA81BB818D919C91AA85BB858D93E8
:102900009C9384E0481A80E0580A2496089581E058
:102910000E94341982E0A881B9818C93AA81BB817D
:102920008C91D2018C9381E00E9434190E94261769
:10293000229681E00E943019AA81BB810C9100305F
:1029400011F00C94B014A0E0B2E08C9185FB16F469
:102950000C94AE1481E0A881B9818C930C94BB14C3
:10296000A0E0B2E08C9185FB16F00C94BB1480E0E3
:10297000A881B9818C93A881B9810C91023011F49E
:102980000C94D014A881B9818C91D2018C9381E0F0
:102990000E9434190E94D614229681E00E943019B8
:1029A00081E0481A80E0580A22960895A881B981EA
:1029B0000C91003011F00C94E01411E10C94E1142E
:1029C00010E112B900910801067E009308010D6123
:1029D00000930801A881B9810C91003011F00C948A
:1029E000F51488E790E00E941E19A881B9818C91A6
:1029F00080FBA0E0B2E08C9185F98C930895A885C6
:102A0000B9854D915C91A2E0B2E00D911C91041743
:102A1000150710F00C941415A2E0B2E08D919C9172
:102A2000A885B9858D939C93AC81BD814D915C91B6
:102A3000A2E0B2E00D911C910417150710F00C9460
:102A40002915A2E0B2E08D919C91AC81BD818D935E
:102A50009C93AE81BF814D915C91A4E0B2E00D9159
:102A60001C910417150710F00C943E15A4E0B2E079
:102A70008D919C91AE81BF818D939C93AA81BB81E6
:102A80004D915C91A4E0B2E00D911C9104171507E3
:102A900010F00C945315A4E0B2E08D919C91AA81A2
:102AA000BB818D939C93AC81BD814D915C91A88538
:102AB000B9850D911C910417150718F011F00C94AD
:102AC00063150C947315A885B9850D911C91AC8183
:102AD000BD818D919C91A885B9858D939C93AC8186
:102AE000BD810D931C93AA81BB814D915C91AE81F8
:102AF000BF810D911C910417150718F011F00C946B
:102B000083150C949315AE81BF810D911C91AA8100
:102B1000BB818D919C91AE81BF818D939C93AA8145
:102B2000BB810D931C93A885B9858D919C91D20191
:102B30008D939C9382E00E943419A885B9858D916C
:102B40009C91D2018D939C9382E00E943419A885B8
:102B5000B9858D919C91D2018D939C9382E00E94C6
:102B60003419A885B9858D919C91D2018D939C9340
:102B700082E00E9434190E942C17289688E00E9457
:102B80003019AE81BF814D915C91AA81BB818D913D
:102B90009C91841B950B0196A885B9852D913C913C
:102BA000AC81BD81ED91FC91E21BF30B3196AF013D
:102BB000A881B9811D912C91FA0120930B0112B9C2
:102BC00000910801067F009308010D610093080140
:102BD000319799F7019781F708951AE212B9009198
:102BE0000801067E009308010D6100930801AC8185
:102BF000BD811D902C90122D12B900910801067F05
:102C0000009308010D6100930801112D12B9009184
:102C10000801067F009308010D6100930801122D41
:102C200012B900910801067F009308010D6100931D
:102C30000801112D12B900910801067F00930801C7
:102C40000D61009308011BE212B900910801067E94
:102C5000009308010D6100930801AA81BB811D90BA
:102C60002C90122D12B900910801067F00930801E3
:102C70000D6100930801112D12B900910801067F22
:102C8000009308010D6100930801122D12B9009103
:102C90000801067F009308010D6100930801112DC2
:102CA00012B900910801067F009308010D6100939D
:102CB00008011CE212B900910801067E0093080188
:102CC0000D6100930801A881B9811D912C91209379
:102CD0000B0112B900910801067F009308010D61F4
:102CE000009308010895A8E1B2E08C9180FBA4E371
:102CF000B0E08C9181F98C93A8E1B2E08C9182FBD9
:102D0000A4E3B0E08C9180F98C93A8E1B2E08C91BF
:102D100081FBABE2B0E08C9186F98C93A8E1B2E044
:102D20008C9183FBABE2B0E08C9187F98C93089592
:102D300081E00E943419AA81BB810C914FE30423E6
:102D4000A881B9810C932A987398A881B9810C91B4
:102D500040E4040F02B9709105017F7E7093050174
:102D6000EF93E2E0EA95F1F7EF9170910501706160
:102D70007093050181E0481A80E0580A2296089570
:102D800081E00E943419AA81BB810C9147E00423A1
:102D9000A881B9810C932A987398A881B9810C9164
:102DA00048EB040F02B9709105017F7E7093050115
:102DB000EF93E2E0EA95F1F7EF9170910501706110
:102DC0007093050181E0481A80E0580A2296089520
:102DD00081E00E943419AA81BB810C914FE3042346
:102DE000A881B9810C932A987398A881B9810C9114
:102DF00040EC040F02B9709105017F7E70930501CC
:102E0000EF93E2E0EA95F1F7EF91709105017061BF
:102E10007093050181E0481A80E0580A22960895CF
:102E20002A9A7398A881B9818C9182B97091050111
:102E30007F7E70930501EF93E2E0EA95F1F7EF9161
:102E4000709105017061709305010895A881B981A1
:102E50008C918093B30008951AE212B90091080191
:102E6000067E009308010D6100930801AE81BF81C9
:102E70002D911C9112B900910801067F0093080161
:102E80000D6100930801122F12B900910801067F0D
:102E9000009308010D6100930801AA81BB812D9167
:102EA0001C9112B900910801067F009308010D6181
:102EB00000930801122F12B900910801067F0093B8
:102EC00008010D61009308011BE212B9009108018D
:102ED000067E009308010D6100930801AC81BD815D
:102EE0002D911C9112B900910801067F00930801F1
:102EF0000D6100930801122F12B900910801067F9D
:102F0000009308010D6100930801A881B9812D91FA
:102F10001C9112B900910801067F009308010D6110
:102F200000930801122F12B900910801067F009347
:102F300008010D61009308011CE212B9009108011B
:102F4000067E009308010D610093080108958E2EFE
:102F50009F2E1BB6109201020895E82DF92D1090B6
:102F600001021BBE88940895EA2FFB2F8D91809556
:102F700081934A95D9F708958C9181508C93089547
:102F8000ED91FC91EF5FFF4FFC93EE93089515E0F8
:102F900000E00093500210935102089540915002B6
:102FA000509151020DEF13E40E943A190D5311464E
:102FB00000935002109351025991499127D00895DE
:102FC00009D00E943A1900FC10D0089503D01ED0F9
:102FD00001F8F9CF0024E89457FF02C009D06894A3
:102FE00000F80BD010F80124089502D009D00895FC
:102FF000509540954F5F5F4F0895E89417FF0895EF
:10300000009510950F5F1F4F68940895352F242F5A
:10301000E894452B11F468940895512F402F002710
:10302000112780E1440F551F001F111F021B130BB6
:10303000416018F4020F131F4E7F8A9599F7089587
:103040000E94A119802D11F065D0FACF089581E07A
:1030500067D015D080E864C08FE7213039F08FEB5E
:10306000223021F08FE8233009F08FEC810F0C948F
:10307000901888EE93E0E2D03197D9F7089583E075
:103080009927DCC08AEF90E00E941E190F9A0E9AD1
:103090000D9A0C9A699A6D9A759885E090E00E9455
:1030A0001E19719817981698159A149A719AEF9399
:1030B000FF93E5E1F0E00E940819FF91EF9171980C
:1030C000BAD0719AEF93FF93E5E1F0E00E940819FE
:1030D000FF91EF917198AFD0719AEF93FF93E5E173
:1030E000F0E00E940819FF91EF917198A4D0149814
:1030F000719AEF93FF93E5E1F0E00E940819FF91C8
:10310000EF91719898D088E20BD08EE009D086E0DC
:1031100007D00895759A829505D004D08CD0089573
:103120007598F9CF859510F4149A01C01498859577
:1031300010F4159A01C01598859510F4169A01C0DF
:103140001698859510F4179A01C01798719AEF9305
:10315000FF93E5E1F0E00E940819FF91EF9171986B
:10316000089500FC05D0089530D005D001F8F9CFBE
:1031700037D03FD00895842F952FA62FB72FE894EE
:10318000452B462B472B11F468940895402F512F5F
:10319000622F732F0027112722273327F0E2440FD5
:1031A000551F661F771F001F111F221F331F081B8B
:1031B000190B2A0B3B0B416028F4080F191F2A1F1B
:1031C0003B1F4E7FFA9559F708950024E89477FF46
:1031D00002C006D0689400F809D010F801240895C0
:1031E00012D04F5F5F4F6F4F7F4F0895E89437FFC6
:1031F000089500951095209530950F5F1F4F2F4F24
:103200003F4F689408954095509560957095089546
:103210003197F1F70895E03019F4F03019F408957A
:10322000000000003197F1F70895689462F808955E
:10323000E89462F8089581E090E000C0EF93FF9376
:10324000EE27E82BE92B31F0EAEFF0E03197F1F7C8
:103250000197D1F7FF91EF910895481A590A0895FF
:10326000481A8827580A089599275A924A92480E70
:10327000591E08950F92B801469F8001479F100D77
:10328000569F100D0F9008950F921F922F92C80114
:10329000D901489F80014A9F90014B9F202C499F54
:1032A000100D211D321D5A9F202C589F100D211DDD
:1032B000321D599F200D311D689F200D311D699FC2
:1032C000300D789F300D2F901F900F900895903003
:1032D00039F08C91880F08F481609A95D9F78C9316
:1032E0000895903039F08C91869508F480689A950D
:1032F000D9F78C930895903029F08C91880F9A9586
:10330000E9F78C930895903041F00D911C91000FD6
:10331000111F9A95E1F71C930E930895903029F0B0
:103320008C9186959A95E9F78C930895903041F0A9
:103330000D911C91169507959A95E1F71C930E93A4
:103340000895D895319628F48F938BB783958BBFCA
:103350008F910020089591E005C092E003C094E0B1
:1033600001C098E0EEDF0D929A95E1F70895880F7D
:10337000991FE80FF91F05D0F0CFE80FF91F01D012
:10338000EACF28F48F938BB783958BBF8F910895E5
:103390000F9301E00BBF0F91889408950F930027BE
:1033A000F9CF0F9302E0F6CF0F9303E0F3CF0F9323
:1033B00004E0F0CF040F151F261F371F08950417D0
:1033C0001507260737070895FF93881BF9E0001FAC
:1033D000FA9511F4FF910895881F841B18F4840F47
:1033E0008894F5CF0894F3CF5445534C4100454C95
:0A33F000454354524F4E494300007C
:00000001FF
