:100000000C947200189500001895000018950000D7
:10001000189500001895000018950000189500002C
:10002000189500001895000018950000189500001C
:10003000189500001895000018950000189500000C
:1000400018950000189500001895000018950000FC
:1000500018950000189500001895000018950000EC
:1000600018950000189500001895000018950000DC
:1000700018950000189500001895000018950000CC
:1000800018950000189500001895000018950000BC
:1000900018950000189500001895000018950000AC
:1000A000189500001895000018950000189500009C
:1000B000189500001895000018950000189500008C
:1000C000189500001895000018950000189500007C
:1000D000189500001895000018950000189500006C
:1000E000189500008FEF8DBFC0E8E8EF4E2E81E23B
:1000F0008EBFD1E2F0E25F2EA89584B7082E882744
:1001000084BF88E199278093600090936000EEEFB0
:10011000FFE1A0E0B2E088278D933197E9F76624EC
:100120008FEF84B980E183B988EC90E00E94A5004C
:100130000C949200F894FFCF3197F1F708956894EA
:1001400062F80895E89462F80895EF93FF93EE271C
:10015000E82BE92B31F0EAEFF0E03197F1F7019766
:10016000D1F7FF91EF9108950F9301E00BBF0F912D
:10017000889408950F930027F9CF0F9302E0F6CFEC
:0C0180000F9303E0F3CF0F9304E0F0CFE7
:00000001FF
