:040000000C947301E8
:100004000C9400000C9400000C9400000C9400006C
:100014000C9400000C9400000C9400000C9400005C
:100024000C9400000C9400000C9400000C9400004C
:100034000C9400000C9400000C9400000C9400003C
:100044000C9400000C9400000C9400000C9400002C
:100054000C9400000C9400000C9400000C9400001C
:100064000C9400000C9400000C9400000C9400000C
:100074000C9400000C9400000C9400000C940000FC
:100084000C9400000C9400000C9400000C940000EC
:100094000C9400000C9400000C9400000C940000DC
:1000A4000C9400000C9400000C9400000C940000CC
:1000B4000C94A8010C9400000C9400000C94000013
:1000C4000C9400000C9400000C9400000C940000AC
:1000D4000C9400000C9400000C9400000C9400009C
:1000E40005072060000000000000005F000000071A
:1000F400000700147F147F14242A7F2A1223130874
:10010400646236495522500005030000001C224158
:10011400000041221C00082A1C2A0808083E08087E
:1001240000503000000808080808003030000020A3
:10013400100804023E5149453E00427F400042619E
:100144005149462141454B311814127F102745452A
:1001540045393C4A49493001710905033649494941
:1001640036064949291E003636000000563600007E
:100174000008142241141414141441221408000217
:1001840001510906324979413E7E1111117E7F49A0
:100194004949363E414141227F4141221C7F494920
:1001A40049417F090901013E414151327F08080854
:1001B4007F00417F41002040413F017F08142241DC
:1001C4007F404040407F0204027F7F0408107F3E4E
:1001D4004141413E7F090909063E4151215E7F09A3
:1001E400192946464949493101017F01013F4040EF
:1001F400403F1F2040201F7F2018207F63140814D5
:10020400630304780403615149454300007F41417D
:10021400020408102041417F00000402010204404E
:1002240040404040000102040020545454787F4868
:100234004444383844444420384444487F3854546F
:100244005418087E090102081454543C7F0804041D
:100254007800447D40002040443D00007F10284445
:1002640000417F40007C041804787C08040478383A
:10027400444444387C14141408081414187C7C086E
:100284000404084854545420043F4440203C404053
:10029400207C1C2040201C3C4030403C442810283A
:1002A400440C5050503C4464544C440008364100C3
:1002B40000007F0000004136080002010204027FB2
:1002C4004141417F000103070F1F3F7FFF000100F1
:1002D4002D4E414E00494E4600000100200AD20234
:1002E4000000F894EE27EFBBF1E0F5BFE5BFE09323
:1002F4007400E09375008DE0A2E0BB27ED938A952E
:10030400E9F780E090E2A0E0B2E0ED930197E9F72D
:10031400EEEDF2E085919591009761F0A591B5918C
:1003240005901590BF01F00105900D920197E1F73A
:10033400FB01F0CF8BBF8CBFE0E0EEBBEFEFEDBF76
:10034400E1E2EEBFC0E0DAE00C94AD01EA930E9472
:100354001F04E99118952697E0E8E0936100E0E036
:10036400E0936100EFEFE1B9E0E0E2B9E7EFE4B96F
:10037400E0E0E5B9EFEFE7B9E0E0E8B9EBEFEAB9BF
:10038400E0E0EBB9E9EFEDB9E0E0EEB9EFE0E0BBB6
:10039400E0E0E1BBEFE3E3BBE0E0E4BBEFE4E093E8
:1003A4000101E0E0E0930201EFEFE0930401E0E0FB
:1003B400E0930501E8EFE0930701E0E0E093080132
:1003C400EFEFE0930A01E0E0E0930B01E4BDE5BD4B
:1003D400E6BDE7BDE8BDE0938000E0938100E093D3
:1003E4008500E0938400E0938700E0938600E09327
:1003F4008900E0938800E0938B00E0938A00E09307
:100404008D00E0938C00E093B600E093B000E0939D
:10041400B100E093B200E093B300E093B400E09342
:100424009000E0939100E0939500E0939400E093B2
:100434009700E0939600E0939900E0939800E0938E
:100444009B00E0939A00E0939D00E0939C00E1E020
:10045400E093A000E9E0E093A1000E941F04E0E023
:10046400E093A700E093A600E093A900E093A8001E
:10047400E093AB00E093AA00E093AD00E093AC00FE
:10048400E0932001E0932101E0932501E09324010E
:10049400E0932701E0932601E0932901E0932801EA
:1004A400E0932B01E0932A01E0932D01E0932C01CA
:1004B400E0936E00E0936F00E0937000E0937100AE
:1004C400E1E0E0937200E0E0E0937300E093690000
:1004D400E0936A00EDBBE0936B00E0936C00E09363
:1004E4006D00E0936800E093C100E093C900E093DD
:1004F400D100E0933101E0E8E0BFE0E0E0937B006D
:10050400E0937F00E0937A00ECBDE093BC00E4EE5E
:10051400F0E0E883F983E0E0EA83EB83EC83ED83A6
:10052400DE01A3D07894E7E0E09302012C9A2D9A9F
:100534002E9AACE2B1E00E943604E0E0E0930201BE
:100544002C982D982E98ACE2B1E00E943604EBCFA3
:10055400FFCF0000E0910501E061E0930501000098
:100564000895E0910501EF7EE0930501E091050116
:10057400EF77E0930501E0910201EF7BE093020144
:1005840008951A93E6DF10B1E0910501EF7EE09340
:100594000501E12F19910895AA931A93E0E0E1B9B6
:1005A400739A7498E981EF5F1E2F10FF04C0E091E5
:1005B4000501E06803C0E0910501EF77E0930501D0
:1005C40011FF04C0E0910201E06403C0E091020164
:1005D400EF7BE0930201D5DFE078E9F718811BC1D6
:1005E400AA93A981D9DF0E94260415C1E0911E0AAD
:1005F400EA93E0911D0AEF73E064AE2FF1DFE0911E
:100604001E0AEA93E0911F0AE86BAE2FE9DF089512
:10061400AA93E981E0931D0AE295EF70E695E695C9
:10062400E0931E0AE881E0931F0AE0DFF4C0A09182
:100634001D0AAF5FA0931D0AA03818F0E0E0E09314
:100644001D0AE0911D0AEF7331F4E0911D0AEA934B
:10065400A0911F0ADDDF0895AA93A0911E0A9CDFD2
:10066400749A0E94260421960895BA93AA931A9321
:10067400E0910401E061E09304016B9A6C9AE091CB
:100684000401E860E0930401E0910501E860E0936F
:100694000501E0910401E068E0930401E0910101A7
:1006A400E064E09301015DDFE0910501E77FE09301
:1006B4000501A4E6B0E00E943604E0910501E8607B
:1006C400E093050110E0123040F41A93AFE388DFA1
:1006D4001A931395A0EC84DFF6CFE1E0E093000ACF
:1006E400E0E0E093010AE981FA813097A9F0A98159
:1006F400BA810E944004E093040AF093050A12961A
:100704000E944004E093190AF0931A0AA981BA815D
:1007140014960E9440040AC0E0E0F0E0E093040A6A
:10072400F093050AE093190AF0931A0AE0931B0A5E
:10073400F0931C0AE1E0E093060AE093070AE093D1
:10074400080AEFEFE093090AE1E0E093100AE1E11F
:10075400FAE0FA93EA93EFEFEA93A8E0B0E00E949C
:100764000F0404D0E1E01881239608950E94480400
:1007740000E030E0E091010AE03009F00FEF38309A
:1007840078F4E0E0EA93A32F3F5F42DF10E0A12F6B
:100794001F5FA03820F4A02F5FDF49DFF8CFEFCF31
:1007A400E0E0EA93A0E034DFE0E0EA93A0E028D0C0
:1007B4000E944D04249608950E942F041CF0E0E04A
:1007C400F0E029C0A881B981A038E0E0BE071CF0A0
:1007D400EFE7F0E020C0E881F9811DC00E942F04FA
:1007E4001CF0E0E0F0E017C0A881B981A034E0E09B
:1007F400BE071CF0EFE3F0E00EC0E881F9810BC006
:10080400AA93A981BB27D8DFE093020AA881BB275A
:10081400E5DFE093030A22960895BA93AA93B98177
:10082400A881109631F0FC81EB816A816193119764
:10083400E9F7EB81FC8125960895ECEFE093A500A0
:10084400E8E1E093A40008957398EFEFE1B9E8813B
:10085400E2B90E94AB020C94B302BA93AA93A881A2
:10086400B9810E9444040895109639F0A8958AEF3E
:1008740090E00197F1F71197C9F70895ED91FC9174
:100884001197089500240A160B0608953A932A93A3
:100894001A930A9308953B812A8119810881089546
:00000001FF
